:020000040800F2
:100000000000022025260008310D0008330D0008ED
:10001000350D0008370D0008390D000800000000FC
:100020000000000000000000000000003B0D000880
:100030003D0D0008000000003F0D0008410D0008C4
:100040007526000875260008752600087526000824
:1000500075260008752600087D060008752600082C
:100060007526000875260008752600087526000804
:1000700075260008752600087526000875260008F4
:10008000490D000875260008752600087526000829
:1000900075260008752600087526000875260008D4
:1000A00075260008752600087526000875260008C4
:1000B00075260008752600087526000875260008B4
:1000C00075260008752600087526000875260008A4
:1000D0007526000875260008752600087526000894
:1000E0007526000875260008752600087526000884
:1000F0007526000875260008752600087526000874
:100100007526000875260008752600087526000863
:100110007526000875260008752600087526000853
:100120007526000875260008752600087526000843
:100130007526000800000000000000007526000879
:100140007526000875260008752600087526000823
:100150007526000875260008752600087526000813
:100160007526000875260008752600087526000803
:100170007526000875260008752600080000000096
:1001800000000000752600080000000000000000CC
:100190007526000800000000000000007526000819
:1001A00000000000000000000000000075260008AC
:1001B00075260008752600087526000875260008B3
:0401C0007526000898
:1001C40010B5054C237833B9044B13B10448AFF38D
:1001D40000800123237010BD5C000020000000009B
:1001E400D026000808B5034B1BB103490348AFF3FD
:1001F400008008BD0000000060000020D026000838
:1002040053B94AB9002908BF00281CBF4FF0FF3179
:100214004FF0FF3000F088B9ADF1080C6DE904CE61
:1002240000F006F8DDF804E0DDE9022304B07047CD
:100234002DE9F047089D8E4604468846002B4AD196
:100244008A42174662D9B2FA82F64EB1C6F1200349
:1002540001FA06F820FA03F3B74043EA0808B44069
:100264004FEA174E1FFA87FCB8FBFEF1230C0EFB76
:10027400118843EA084301FB0CF29A4209D9FB189E
:1002840001F1FF3080F0EA809A4240F2E7800239BF
:100294003B449A1AA3B2B2FBFEF00EFB102243EACF
:1002A400024300FB0CFC9C4509D9FB1800F1FF320A
:1002B40080F0D6809C4540F2D3803B44023840EA2B
:1002C4000140A3EB0C0300211DB1F3400022C5E95A
:1002D4000032BDE8F0878B4205D90DB1C5E90001B4
:1002E40000210846F5E7B3FA83F1002946D17345A6
:1002F40002D3824200F20581841A6EEB03020120CC
:100304009046002DE5D0C5E90048E2E7002A00F058
:100314009080B2FA82F6002E40F0A4808A1A030C70
:100324004FEA174E80B2BCB20121B2FBFEFC0EFBB9
:100334001C2243EA024304FB0CF29A4207D9FB183D
:100344000CF1FF3802D29A4200F2E080C4469B1AB4
:10035400B3FBFEF20EFB123340EA034302FB04F448
:100364009C4207D9FB1802F1FF3002D29C4200F2F2
:10037400CA8002461B1B42EA0C40A5E7C1F12006D5
:100384008B4022FA06F71F430EFA01F420FA06F313
:100394002EFA06FE4FEA1749234300FA01F81FFA22
:1003A40087FCBEFBF9F01C0C09FB10EE44EA0E447A
:1003B40000FB0CFEA64502FA01F209D93C1900F132
:1003C400FF3A80F09C80A64540F2998002383C4474
:1003D400A4EB0E041FFA83FEB4FBF9F309FB1344E8
:1003E4004EEA044403FB0CFCA44508D93C1903F170
:1003F400FF3E80F08280A4457FD9023B3C4443EA1F
:100404000040A4EB0C04A0FB02EC64457346E146F7
:1004140062D35FD05DB1B8EB030264EB090404FA64
:1004240006F622FA01F31E43CC40C5E9006400211C
:100434004FE7B1FBF2FC010C41EA0E4180B240EA05
:1004440001423B4638463C46B846BE462026B1FBF0
:10045400F7F1A2EB080241EA0C4166E7014618E70E
:1004640010462CE7C6F120022EFA02F3B740B14041
:1004740020FA02F24FEA174E0A43B3FBFEF8BCB26D
:100484000EFB1833110C41EA034108FB04F9B04098
:1004940089454FEA104380B23ED9791808F1FF3CF0
:1004A40001D289451FD8A1EB0901B1FBFEF909FB73
:1004B40004F80EFB191192B242EA0142424529D2D4
:1004C400BA1809F1FF31C4D24245C2D2A9F10201DE
:1004D4003A44BEE7F0459DD2BEEB02036CEB070C39
:1004E4000138E14696E7A7EB09094944A8F1020C53
:1004F400B1FBFEF909FB04F8DBE773467FE75046DE
:1005040066E70846FDE63B44023A33E7ACF1020CE9
:100514003B441CE749469CE7A1EB0901C446B1FBF7
:10052400FEF909FB04F8C4E7704700BF2DE9F04F5A
:1005340089B00024039404940594069407940094C9
:100544002F4B1A6B42F080021A631A6B02F080027E
:100554000092009A01941A6B42F001021A631A6B1A
:1005640002F001020192019A02941A6B42F0020213
:100574001A631B6B03F002030293029B4FF4404B7C
:10058400CDF80CB001260496DFF87CA003A95046F0
:1005940001F04AFC4FF44079CDF80C90DFF86C8000
:1005A40003A9404601F040FC4FF410470397154D52
:1005B40003A9284601F038FC22465946504601F06A
:1005C4002AFD22464946404601F025FD2246394689
:1005D400284601F020FD03964FF4881304930596F2
:1005E40003A9284601F020FC22460221062001F03E
:1005F40093FF062001F0A0FF09B0BDE8F08F00BF13
:10060400003802400000024000080240000402409A
:1006140000B583B000210191094B1A6B42F400121A
:100624001A631B6B03F400130193019B0A46102009
:1006340001F072FF102001F07FFF03B05DF804FBAE
:100644000038024010B501F0DFFC012802D000247C
:10065400204610BD044601F0D3FF064B1B68C01AA8
:10066400142801D80024F3E701F0CAFF014B1860F5
:10067400EEE700BF7800002070B5012001F0D2FC45
:1006840001212648FFF7DEFF002842D0244B1B68D7
:10069400052B3FD00133224A1360214D2A68214B98
:1006A40003EB820393ED007ADFED1F7A27EE277ABE
:1006B400DFED1E6AC6EE877AFCEEE77A1C4AC2EDCD
:1006C400007A1C4CC4ED037A204600F009FD226830
:1006D400D36823F40073D360174E304601F0C7FD8E
:1006E400286842F21073154A1268154951F820100F
:1006F400304601F087FD2268D36843F40073D36069
:10070400012000F053FA2A680E4B53F8220000F03F
:1007140041FA70BD024B00221A60BEE7000002409D
:100724006C0100203800002000401C460024744B5B
:1007340004000020240100207C0000200000002090
:10074400200000200800002072B6FEE700B58FB03C
:1007540000230A930B930C930D930893099301932D
:1007640002930393049305930693079336484FF03B
:100774008042026043608360344A1268013AC26076
:1007840003618023836100F0ABFC002850D14FF457
:1007940080530A930AA92C4800F008FE002849D186
:1007A400294800F0C9FC002846D100230893099386
:1007B40008A9254800F08CFF00283FD100220192AF
:1007C40002920392059201A91F4800F045FD0028FA
:1007D40036D1002300931E4A116B41F400111163BA
:1007E400126B02F400120092009A1A481A4A02602C
:1007F4004FF0C062426040228260C3604FF4806266
:1008040002614FF4805242614FF4804282614FF49E
:100814008072C2614FF400320262436201F08CFCC8
:1008240080B9094A0B4B53629A630FB05DF804FB1D
:10083400FFF78AFFFFF788FFFFF786FFFFF784FFC4
:10084400FFF782FFFFF780FF24010020040000204F
:10085400003802407C0000208860024000B58FB060
:1008640000230A930B930C930D930893099301931C
:100874000293039304930593069307931E481F4A18
:100884000260436083604FF48052C26003618361FD
:1008940000F026FC28BB4FF480530A930AA916489B
:1008A40000F084FDF8B9144800F072FCE8B90023A4
:1008B4000893099308A9104800F00AFFB8B9602307
:1008C40001930023029303930593082201A90A4884
:1008D40000F0F1FC68B9084800F0A4FA0FB05DF824
:1008E40004FBFFF731FFFFF72FFFFFF72DFFFFF7A3
:1008F4002BFFFFF729FF00BFDC00002000040040AD
:1009040000B595B03422002107A801F0B2FE0023FF
:10091400029303930493059306930093194A116C6D
:1009240041F080511164126C02F080520092009ADE
:10093400019315490A6822F4404242F480420A6055
:100944000A6802F440420192019A022207920122AB
:100954000A9210220B920D9307A801F043F868B98C
:100964000F2302930021039104910591069102A89B
:1009740000F0F4FE20B915B05DF804FBFFF7E4FEC7
:10098400FFF7E2FE003802400070004008B501F0B5
:1009940011FEFFF7B5FFFFF7C9FDFFF739FEFFF7BB
:1009A400D5FEFFF75BFF194B1A68194B03EB820363
:1009B40093ED007ADFED177A27EE277ADFED166ADA
:1009C400C6EE877AFCEEE77A144BC3ED007A082171
:1009D400134800F0FBFD134C0021204600F074FD89
:1009E40042F21073104A12681049114801F00AFCCF
:1009F40000F064F9012000F0D9F80E4800F0CAF8BC
:100A04002268D36843F40073D360FEE76C010020CE
:100A14003800002000401C460024744B04000020D1
:100A2400DC000020240100200000002060340308C2
:100A34007C000020E826000882B000EB4000002380
:100A4400019304E000BF00BF019B01330193019BAC
:100A54008342F7D302B0704710B51420FFF7ECFFC0
:100A6400094CA36943F40043A3611420FFF7E4FF96
:100A7400A36943F00043A3611420FFF7DDFFA369DA
:100A840043F40043A36110BD0008024010B50446BE
:100A94003D4A936943F48043936110F0800F41D140
:100AA4003A4A936943F00043936114F0400F40D0F5
:100AB400364A936943F48053936114F0200F3ED077
:100AC400334A936943F40073936114F0100F3CD0DC
:100AD4002F4A936943F480739361FFF7BDFF14F0C9
:100AE400080F38D0294A936943F40043936114F002
:100AF400040F36D0254A936943F48053936114F06C
:100B0400020F34D0224A936943F40073936114F0C2
:100B1400010F32D01E4A936943F480739361FFF747
:100B24009BFF10BDA2F50062936943F400439361F7
:100B3400BBE7164A936943F080539361BDE7144AB7
:100B4400936943F000739361BFE7114A936943F0DB
:100B540080739361C1E70D4A936943F00043936145
:100B6400C5E70A4A936943F080539361C7E7084A8B
:100B7400936943F000739361C9E7054A936943F0AD
:100B840080739361CBE700BF00080240000002407D
:100B94000004024038B50546002403E0FFF776FF61
:100BA4000134E4B2285D0028F8D138BD10B50446FC
:100BB4003F4A936943F08043936110F0800F45D11D
:100BC4003C4A936943F00043936114F0400F44D0CE
:100BD400384A936943F48053936114F0200F42D050
:100BE400354A936943F40073936114F0100F40D0B5
:100BF400314A936943F480739361FFF72DFF14F036
:100C0400080F3CD02B4A936943F40043936114F0DA
:100C1400040F3AD0274A936943F48053936114F044
:100C2400020F38D0244A936943F40073936114F09B
:100C3400010F36D0204A936943F480739361FFF720
:100C44000BFF40F6B830FFF7F7FE10BDA2F50062C7
:100C5400936943F400439361B7E7164A936943F0F9
:100C640080539361B9E7144A936943F00073936125
:100C7400BBE7114A936943F080739361BDE70D4A62
:100C8400936943F000439361C1E70A4A936943F0CF
:100C940080539361C3E7084A936943F000739361F7
:100CA400C5E7054A936943F080739361C7E700BFC2
:100CB40000080240000002400004024008B5194B3D
:100CC4001A6B42F001021A631A6B42F002021A63B1
:100CD4001A6B42F004021A63134A136843F0824306
:100CE400136002F58062136843F4A023136002F5D5
:100CF4008062136843F0A043136047F23050FFF75B
:100D04009BFE3320FFF752FF3220FFF74FFF0C20EA
:100D1400FFF74CFF2820FFF749FF0120FFF746FFAC
:100D240008BD00BF0038024000000240FEE7FEE7B5
:100D3400FEE7FEE7FEE770477047704708B501F02D
:100D440053FC08BD08B5024801F0A4FA08BD00BF71
:100D54007C00002082B0002100910B4B5A6C42F4BD
:100D640080425A645A6C02F480420092009A0191C3
:100D74001A6C42F080521A641B6C03F08053019386
:100D8400019B02B0704700BF0038024010B582B02A
:100D94000368B3F1804F04D01E4A93422CD002B0B2
:100DA40010BD0446002300931B4A116C41F001015D
:100DB4001164126C02F001020092009A1748184A5A
:100DC40002604FF0C06242608360C3604FF480628F
:100DD40002614FF4805242614FF480428261C361E8
:100DE4000362436201F0A8F918B90C4B63629C6377
:100DF400D5E7FFF7A9FCF8E700230193064B1A6C2B
:100E040042F002021A641B6C03F002030193019B7B
:100E1400C5E700BF00040040003802407C00002009
:100E24008860024000B587B00023019302930393C6
:100E34000493059302680E4B9A4202D007B05DF802
:100E440004FB002300930B4B1A6B42F002021A635B
:100E54001B6B03F002030093009B01230193022305
:100E64000293059301A9044800F0DEFFE6E700BF02
:100E740000040040003802400004024030B4036A19
:100E8400026A22F0010202624268846924F0730C4F
:100E94000C6844EA0C0423F0020C8B6843EA0C034C
:100EA400114DA84203D005F58065A84205D123F071
:100EB4000803CD682B4323F004030B4DA84203D051
:100EC40005F58065A84207D122F440724D6945EAD0
:100ED400020C8A6942EA0C02426084614A684263F5
:100EE400036230BC704700BF0000014030B4036AA5
:100EF400026A22F4807202624268C46924F0730CAC
:100F04000C6844EA0C0523F400738C6843EA042358
:100F1400114CA04203D004F58064A04206D123F40E
:100F24000063CC6843EA042323F480630A4CA042A0
:100F340003D004F58064A04207D122F440524C69E6
:100F440042EA04128C6942EA04124260C5614A68AA
:100F5400C263036230BC70470000014030B4036ACE
:100F6400026A22F4805202624468C26922F4E642B0
:100F74000D6842EA052223F400538D6843EA0533E1
:100F8400094DA84203D005F58065A84204D124F494
:100F940080444D6944EA85144460C2614A6802642D
:100FA400036230BC704700BF0000014010B4036A04
:100FB400046A24F001040462846924F0F00C4CEA0D
:100FC400021223F00A030B43826103625DF8044BAF
:100FD400704710B4036A046A24F01004046284693C
:100FE40024F4704C4CEA023223F0A00343EA0113C8
:100FF400826103625DF8044B7047836823F07003D9
:101004000B4343F007038360704770477047000049
:101014000368324A904212D0B0F1804F0FD0A2F54B
:101024007C4290420BD002F58062904207D002F5D8
:101034008062904203D002F57842904203D123F0BB
:1010440070034A681343254A90422AD0B0F1804F76
:1010540027D0A2F57C42904223D002F580629042D0
:101064001FD002F5806290421BD002F57842904274
:1010740017D002F57052904213D002F5806290426C
:101084000FD002F5806290420BD0A2F598329042C4
:1010940007D002F58062904203D002F5806290424C
:1010A40003D123F44073CA68134323F080034A69CD
:1010B40013438A68C2620A688262084A904203D073
:1010C40002F58062904201D10A690263026842F02B
:1010D4000402026001224261036070470000014083
:1010E40040B310B5044690F83D30F3B1022384F8C0
:1010F4003D30214651F8040BFFF78AFF012384F8A1
:10110400463084F83E3084F83F3084F8403084F828
:10111400413084F8423084F8433084F8443084F811
:10112400453084F83D30002010BD80F83C30FFF796
:101134002DFEDBE70120704740B310B5044690F85C
:101144003D30F3B1022384F83D30214651F8040BBD
:10115400FFF75EFF012384F8463084F83E3084F8BC
:101164003F3084F8403084F8413084F8423084F8C9
:10117400433084F8443084F8453084F83D3000200E
:1011840010BD80F83C30FFF740FFDBE701207047DB
:1011940040B310B5044690F83D30F3B1022384F80F
:1011A4003D30214651F8040BFFF732FF012384F848
:1011B400463084F83E3084F83F3084F8403084F878
:1011C400413084F8423084F8433084F8443084F861
:1011D400453084F83D30002010BD80F83C30FFF7E6
:1011E40015FFDBE70120704730B4036A026A22F07E
:1011F400100202624468826922F4E6420D6842EAFF
:10120400052223F020038D6843EA0513114DA842FB
:1012140003D005F58065A84206D123F08003CD688C
:1012240043EA051323F040030A4DA84203D005F511
:101234008065A84207D124F440644D6944EA8504DA
:101244008D6944EA8504446082614A68826303626A
:1012540030BC70470000014090F83C30012B28D08E
:1012640010B50446012380F83C300C2A1CD8DFE872
:1012740002F0071B1B1B0C1B1B1B111B1B1B16004B
:101284000068FFF7FBFD00200FE00068FFF7ACFFEC
:1012940000200AE00068FFF729FE002005E000684E
:1012A400FFF75CFE002000E00120002384F83C30BE
:1012B40010BD0220704738B590F83C30012B66D041
:1012C40004460D46012380F83C300C2A5AD8DFE846
:1012D40002F0075959591B59595930595959440061
:1012E4000068FFF7CBFD2268936943F0080393611C
:1012F4002268936923F0040393612268936929693E
:101304000B43936100203EE00068FFF76DFF226805
:10131400936943F4006393612268936923F48063BF
:10132400936122689369296943EA01239361002048
:1013340029E00068FFF7DAFD2268D36943F0080367
:10134400D3612268D36923F00403D3612268D3698B
:1013540029690B43D361002015E00068FFF7FEFD07
:101364002268D36943F40063D3612268D36923F408
:101374008063D3612268D369296943EA0123D36175
:10138400002000E00120002384F83C3038BD022016
:10139400FCE710B4846824F47F4C42EA03220A4335
:1013A40042EA0C0282605DF8044B704790F83C30CE
:1013B400012B78D010B50446012380F83C30022379
:1013C40080F83D300268936823F47F4323F0770369
:1013D40093600B68602B4CD023D8402B54D011D889
:1013E400202B03D00AD80BB1102B05D11946206845
:1013F400FFF703FE002028E0012026E0302BF5D083
:10140400012022E0502B0AD1CA6849680068FFF71E
:10141400CDFD50212068FFF7F0FD002015E00120EC
:1014240013E0B3F5805F3AD0B3F5005F14D0702BAE
:1014340037D1CB684A6889680068FFF7AAFF226839
:10144400936843F0770393600020012384F83D30D0
:10145400002384F83C3010BDCB684A688968006872
:10146400FFF797FF2268936843F48043936000205A
:10147400EBE7CA6849680068FFF7ABFD60212068A4
:10148400FFF7BBFD0020E0E7CA6849680068FFF782
:101494008DFD40212068FFF7B0FD0020D5E7002036
:1014A400D3E70120D1E70220704701F01F014FF07C
:1014B400010C0CFA01FC036A23EA0C030362036ABD
:1014C4008A4013430362704710B504460846002956
:1014D40042D194F83E30DBB2013B18BF0123002B0C
:1014E4006ED1002851D1022384F83E3001220146F6
:1014F4002068FFF7DAFF2368334A934203D002F5EA
:101504008062934203D15A6C42F400425A642368C5
:101514002D4A934249D0B3F1804F46D0A2F57C4284
:10152400934242D002F5806293423ED002F580623B
:1015340093423AD002F57842934236D002F5705283
:10154400934232D0A2F5943293422ED01A6842F0DC
:1015540001021A60002032E0042908D008290DD0C5
:1015640094F84130DBB2013B18BF0123B7E794F88C
:101574003F30DBB2013B18BF0123B0E794F84030A1
:10158400DBB2013B18BF0123A9E7042805D00828D2
:1015940007D0022384F84130A8E7022384F83F30BF
:1015A400A4E7022384F84030A0E79A6802F0070217
:1015B400062A07D01A6842F001021A60002010BD02
:1015C4000120FCE70020FAE70000014010B50446C2
:1015D4000846002942D194F83E30DBB2013B18BFE3
:1015E4000123002B6ED1002851D1022384F83E3010
:1015F400012201462068FFF758FF2368334A9342CB
:1016040003D002F58062934203D15A6C42F4004243
:101614005A6423682D4A934249D0B3F1804F46D08F
:10162400A2F57C42934242D002F5806293423ED0BE
:1016340002F5806293423AD002F57842934236D062
:1016440002F57052934232D0A2F5943293422ED0D6
:101654001A6842F001021A60002032E0042908D01E
:1016640008290DD094F84130DBB2013B18BF0123A7
:10167400B7E794F83F30DBB2013B18BF0123B0E772
:1016840094F84030DBB2013B18BF0123A9E70428DA
:1016940005D0082807D0022384F84130A8E70223A4
:1016A40084F83F30A4E7022384F84030A0E79A6826
:1016B40002F00702062A07D01A6842F001021A60F3
:1016C400002010BD0120FCE70020FAE700000140E3
:1016D40090F83C20012A3DD010B40346012280F842
:1016E4003C20022280F83D2002685068946820F073
:1016F400700C086840EA0C0050601A681648824270
:101704001AD0B2F1804F17D0A0F57C40824213D09A
:1017140000F5806082420FD000F5806082420BD0D9
:1017240000F57840824207D000F57050824203D021
:10173400A0F59430824204D124F080044968214306
:101744009160012283F83D20002083F83C005DF87D
:10175400044B70470220704700000140002800F04D
:101764009B8070B50D4604464F4B1B6803F00F0376
:101774008B4208D2CBB24C4A1370136803F00F03A8
:101784008B4240F08B80236813F0020F17D013F0C4
:10179400040F04D0454A936843F4E05393602368EC
:1017A40013F0080F04D0414A936843F460439360F4
:1017B4003E4A936823F0F003A1680B4393602368C7
:1017C40013F0010F32D06368012B21D09A1E012A35
:1017D40025D9364A126812F0020F61D033498A685B
:1017E40022F0030213438B6000F00AFF06462F4BDE
:1017F4009B6803F00C036268B3EB820F16D000F011
:10180400FFFE801B41F288339842F0D9032042E066
:10181400264A126812F4003FE0D101203BE0234A3B
:10182400126812F0007FD9D1012034E01E4B1B68EE
:1018340003F00F03AB4207D9EAB21B4B1A701B68C3
:1018440003F00F03AB422DD1236813F0040F06D02D
:10185400164A936823F4E053E1680B4393602368CA
:1018640013F0080F07D0114A936823F460432169E9
:1018740043EAC103936000F021F80C4B9B68C3F367
:1018840003130B4AD35CD8400A4B18600A4B186800
:1018940000F06AFE002070BD012070470120FAE7C5
:1018A4000120F8E70120F6E7003C0240003802403E
:1018B400A8D00308580000205400002008B5464B67
:1018C4009B6803F00C03082B05D00C2B43D0042B8E
:1018D4007FD1424819E0404B5A6802F03F025B68EE
:1018E40013F4800F12D03C4B5968C1F388113B4864
:1018F4000023A1FB0001FEF783FC374B5B68C3F3B5
:10190400014301335B00B0FBF3F008BD324B586870
:10191400C0F388104FEA401CBCEB000C6EEB0E0EBB
:101924004FEA8E1343EA9C634FEA8C11B1EB0C012E
:1019340063EB0E03DB0043EA5173C90011EB000CA7
:1019440043F10003990200234FEA8C2041EA9C51A1
:10195400FEF756FCD1E7204B5A6802F03F025B6861
:1019640013F4800F10D01C4B5968C1F388111B4825
:101974000023A1FB0001FEF743FC174B5B68C3F394
:101984000273B0FBF3F0C0E7134B5868C0F3881040
:101994004FEA401CBCEB000C6EEB0E0E4FEA8E13AC
:1019A40043EA9C634FEA8C11B1EB0C0163EB0E0329
:1019B400DB0043EA5173C90011EB000C43F100034F
:1019C400990200234FEA8C2041EA9C51FEF718FC4F
:1019D400D3E7034899E700BF0038024040787D010F
:1019E4000024F400002800F0018270B582B004469F
:1019F400036813F0010F41D0994B9B6803F00C036B
:101A0400042B32D0964B9B6803F00C03082B27D091
:101A1400934B9B6803F00C030C2B59D06368B3F50C
:101A2400803F5BD0B3F5A02F5ED08D4B1A6822F4B3
:101A340080321A601A6822F480221A606368002BCC
:101A44005CD000F0DDFD0546854B1B6813F4003FB8
:101A540014D100F0D5FD401B6428F5D90320CCE156
:101A64007F4B5B6813F4800FD2D07D4B1B6813F45B
:101A7400003F03D06368002B00F0BA81236813F0A1
:101A8400020F60D0764B9B6813F00C0F4AD0744B56
:101A94009B6803F00C03082B3FD0714B9B6803F049
:101AA4000C030C2B69D0E368002B75D06D4B01221D
:101AB4001A6000F0A5FD0546694B1B6813F0020F80
:101AC40061D100F09DFD401B0228F5D9032094E16B
:101AD400634B5B6813F4800FA0D0C6E7604A1368B9
:101AE40043F480331360A9E75D4B1A6842F4802203
:101AF4001A601A6842F480321A609FE700F080FD91
:101B04000546574B1B6813F4003FB7D000F078FD2F
:101B1400401B6428F5D903206FE1514B5B6813F433
:101B2400800FBAD14E4B1B6813F0020F03D0E36849
:101B3400012B40F05F814A4A136823F0F8032169BE
:101B440043EAC1031360236813F0080F49D06369A3
:101B5400002B33D0434B0122C3F8802E00F050FDFC
:101B640005463F4B5B6F13F0020F3AD100F048FD7E
:101B7400401B0228F5D903203FE1394B5B6813F47D
:101B8400800F90D1CEE7364A136823F0F803216919
:101B940043EAC1031360D6E7324B00221A6000F017
:101BA4002FFD05462E4B1B6813F0020FCBD000F01F
:101BB40027FD401B0228F5D903201EE1294B0022F2
:101BC400C3F8802E00F01CFD0546254B5B6F13F017
:101BD400020F06D000F014FD401B0228F5D90320A3
:101BE4000BE1236813F0040F76D01D4B1B6C13F02C
:101BF400805F33D100230193194B1A6C42F0805259
:101C04001A641B6C03F080530193019B0125164B4E
:101C14001B6813F4807F29D0A368012B3AD0052BCD
:101C24003ED00F4B1A6F22F001021A671A6F22F08E
:101C340004021A67A368002B3CD000F0E1FC0646BE
:101C4400074B1B6F13F0020F45D100F0D9FC801B2A
:101C540041F288339842F3D90320CEE00025D6E739
:101C64000038024000004742007000406B4A13688D
:101C740043F48073136000F0C3FC0646674B1B6893
:101C840013F4807FC8D100F0BBFC801B0228F5D977
:101C94000320B2E0624A136F43F001031367C9E7FC
:101CA4005F4B1A6F42F004021A671A6F42F0010286
:101CB4001A67BFE700F0A4FC0646594B1B6F13F0EC
:101CC400020F08D000F09CFC801B41F2883398423C
:101CD400F3D9032091E0EDB9A369002B00F08C80C7
:101CE4004F4A926802F00C02082A54D0022B17D0F3
:101CF4004C4B00221A6600F083FC0446484B1B68D8
:101D040013F0007F45D000F07BFC001B0228F5D9BE
:101D1400032072E0424A136C23F080531364DBE720
:101D2400404B00221A6600F06BFC05463C4B1B68D6
:101D340013F0007F06D000F063FC401B0228F5D9A5
:101D440003205AE0E369226A1343626A43EA821376
:101D5400A26A5208013A43EA0243E26A43EA02638E
:101D6400226B43EA02732E4A53602E4B01221A66F9
:101D740000F046FC04462A4B1B6813F0007F06D192
:101D840000F03EFC001B0228F5D9032035E00020BA
:101D940033E0002031E0012B31D0214B5B6803F4A8
:101DA4008001E26991422CD103F03F02216A8A4208
:101DB40029D1616A47F6C0721A40B2EB811F24D15F
:101DC40003F44031A26A5208013AB1EB024F1ED12A
:101DD40003F07062E16AB2EB016F1AD103F0E043E1
:101DE400226BB3EB027F16D1002006E0012070477E
:101DF400012002E0012000E0002002B070BD0120BB
:101E0400FBE70120F9E70120F7E70120F5E70120CE
:101E1400F3E70120F1E70120EFE700BF0070004085
:101E2400003802400000474200230F2B00F2E380F9
:101E340070B582B065E085684FEA430E032404FA66
:101E44000EF425EA0405CC6804FA0EF42C438460ED
:101E5400446824EA02044A68C2F300129A40224306
:101E640042605CE0DC08083450F8242003F00705E5
:101E7400AD004FF00F0E0EFA05FE22EA0E0E0A69AF
:101E8400AA4042EA0E0240F824205CE0062200E068
:101E9400002202FA0EF22A430234574D45F8242058
:101EA400564A94686FEA0C0224EA0C054E6816F44C
:101EB400801F01D04CEA0405504CA560E46802EA96
:101EC40004054E6816F4001F01D04CEA04054B4C7F
:101ED400E560646802EA04054E6816F4003F01D028
:101EE4004CEA0405454C6560246822404D6815F4AD
:101EF400803F01D04CEA0402404C226001330F2B96
:101F040077D801229A400C6804EA020C32EA0404ED
:101F1400F4D14C6804F00304013C012C8BD94A68C9
:101F240002F00302032A09D0C4685D000322AA4018
:101F340024EA02048A68AA402243C2604A6802F082
:101F44000302022A8ED004684FEA430E032202FAE7
:101F54000EF224EA02044A6802F0030202FA0EF2C4
:101F6400224302604A6812F4403FC7D00022019223
:101F7400234A546C44F480445464526C02F4804206
:101F84000192019A9C08A51C1B4A52F8255003F0A3
:101F9400030E4FEA8E0E0F2202FA0EF225EA020514
:101FA400184A90423FF474AF02F58062904216D012
:101FB40002F58062904214D002F58062904212D001
:101FC40002F58062904210D002F5806290420ED0F9
:101FD40002F5806290423FF459AF072259E701228B
:101FE40057E7022255E7032253E7042251E705226B
:101FF4004FE702B070BD704700380140003C01401B
:1020040000380240000002400369194201D0012057
:102014007047002070470AB18161704709048161EB
:102024007047704708B5054B5B69034200D108BD92
:10203400024B5861FFF7F5FFF9E700BF003C014090
:1020440030B405682C6824F480242C600468636030
:102054008368402B05D0036899600368DA6030BC5C
:10206400704703689A600368D960F8E710B403689E
:10207400D9B210390A4AA2FB01421209094CA25CE6
:10208400C2655F2907D96FF3090304338365806D43
:102094005DF8044B70476FF309038365F7E700BFEE
:1020A400ABAAAAAAA0D00308836A826992B9012BB9
:1020B4000AD0022B02D00BB100207047C36A13F080
:1020C400807F28D100207047C36AB3F1C07F24D039
:1020D40000207047B2F5005F09D0022B25D9032BED
:1020E40025D1C36A13F0807F23D100207047032BCE
:1020F40003D8DFE803F01404140A00207047C36A0D
:1021040013F0807F0DD100207047C36AB3F1C07F04
:1021140009D000207047012070470120704701203A
:10212400704701207047012070470120704700204C
:10213400704701207047000070B5044600F060FA53
:10214400002C5BD00546022384F83530002384F844
:1021540034302268136823F00103136023681A687B
:1021640012F0010F0AD000F04BFA431B052BF5D9EE
:1021740020236365032084F8350070BD1A68204964
:1021840011406268A0680243E06802432069024388
:1021940060690243A0690243E0690243206A024382
:1021A4000A43616A04291ED01A602668756925F0FD
:1021B4000705636A1D43042B07D1A36A1D43E36A21
:1021C4001BB12046FFF770FF90B975612046FFF7F9
:1021D4004DFFE26D3F23934083600020606501233F
:1021E40084F83530C9E7E16A206B01430A43DBE731
:1021F40040236365012084F83500BEE70120BCE775
:102204003F8010F038B50446856D90F834000128FD
:102214002BD0012084F8340094F83500C0B2012892
:1022240004D0002384F83430022038BD022084F81E
:102234003500002060652046FFF702FFE26D3F2372
:102244009340AB602268136843F016031360236C59
:1022540023B12268136843F00803136022681368EB
:1022640043F0010313600020DFE70220DDE790F86C
:102274003530DBB2022B03D0802343650120704745
:10228400052380F835300268136823F001031360D6
:1022940000207047F0B583B0044600230193724BCD
:1022A4001D68724BA3FB0535AD0A876D3E68C26D90
:1022B40008239340334210D003681A6812F0040FC5
:1022C4000BD01A6822F004021A60C26D08239340EE
:1022D400BB60436D43F001034365E26D012393400A
:1022E400334209D02268526912F0800F04D0BB60D7
:1022F400636D43F002036365E26D0423934033424C
:1023040009D02268126812F0020F04D0BB60636D1A
:1023140043F004036365E26D10239340334224D0F9
:102324002268126812F0080F1FD0BB6023681A6875
:1023340012F4802F0DD01B6813F4002F04D1236CEA
:102344009BB12046984710E0A36C73B12046984790
:102354000BE01A6812F4807F03D11A6822F0080295
:102364001A60236C0BB120469847E26D20239340FA
:10237400334255D02268126812F0100F50D0BB605F
:1023840094F83530DBB2052B0ED023681A6812F4AA
:10239400802F33D01B6813F4002F2AD1636C002BD9
:1023A4003ED0204698473BE02268136823F016038A
:1023B40013602268536923F080035361236CA3B133
:1023C4002268136823F008031360E26D3F239340EF
:1023D400BB60012384F83530002384F83430236D46
:1023E400002B3FD0204698473CE0A36C002BE7D15C
:1023F400EBE7E36BA3B12046984711E01A6812F4A7
:10240400807F09D11A6822F010021A60012384F82F
:102414003530002384F83430E36B0BB12046984701
:10242400636DFBB1636D13F0010F17D0052384F8BE
:1024340035302268136823F001031360019B0133D4
:102444000193AB4204D823681B6813F0010FF5D144
:10245400012384F83530002384F83430E36C0BB165
:102464002046984703B0F0BD58000020B5814E1BAC
:10247400002807DB00F01F02400901239340024AB1
:1024840042F82030704700BF00E100E0002808DB7C
:102494000901C9B200F1604000F5614080F8001301
:1024A400704700F00F000901C9B2014B195470477D
:1024B40014ED00E000B500F00700C0F1070CBCF11A
:1024C400040F28BF4FF0040C031D062B0FD9C31EA5
:1024D4004FF0FF3E0EFA0CF021EA000199400EFA8B
:1024E40003FE22EA0E0241EA02005DF804FB002327
:1024F400EEE70000074AD36823F4E0631B041B0CD7
:10250400000200F4E060034343F0BF6343F400338C
:10251400D360704700ED00E010B50446054BD86861
:10252400C0F30220FFF7C6FF01462046FFF7AEFFC7
:1025340010BD00BF00ED00E008B5FFF799FF08BD2E
:102544000138B0F1807F0BD24FF0E0235861054A87
:10255400F02182F823100020986107221A61704745
:102564000120704700ED00E010B504460E4B1A78C8
:102574004FF47A73B3FBF2F30C4A1068B0FBF3F038
:10258400FFF7DEFF68B90F2C01D901200AE0002211
:1025940021464FF0FF30FFF7BFFF054B1C600020C2
:1025A40000E0012010BD00BF5000002058000020B2
:1025B4005400002008B50B4B1A6842F400721A60EC
:1025C4001A6842F480621A601A6842F480721A60CF
:1025D4000320FFF78FFF0F20FFF7C6FFFEF7BAFBBC
:1025E400002008BD003C0240034A1168034B1B78DD
:1025F4000B441360704700BF70010020500000209E
:10260400014B1868704700BF70010020034AD2F8DC
:10261400883043F47003C2F88830704700ED00E05E
:10262400DFF834D0FFF7F2FF0C480D490D4A0023C0
:1026340002E0D458C4500433C4188C42F9D30A4A73
:102644000A4C002301E013600432A242FBD300F0E1
:1026540019F8FEF79BF970470000022000000020E3
:102664005C000020C8D003085C0000207401002036
:10267400FEE702440346934200D1704703F8011B6E
:10268400F9E7000070B50D4D0D4C641BA410002635
:10269400A64209D10B4D0C4C00F018F8641BA41091
:1026A4000026A64205D170BD55F8043B9847013673
:1026B400EEE755F8043B98470136F2E7C0D003082B
:1026C400C0D00308C0D00308C4D00308F8B500BFC5
:1026D400F8BC08BC9E467047F8B500BFF8BC08BCFF
:0426E4009E46704757
:1026E80053696E6500000000536177746F6F7468FA
:1026F80000000000547269616E67756C61720000B9
:102708004472756D000000004775697461720000BD
:102718005069616E6F000000FF070000FF070000AE
:10272800FF070000FF070000FF070000FF07000089
:10273800FE070000FF070000FD070000000800007A
:10274800FE07000000080000000800000008000064
:102758003C070000E9090000720A0000010C0000B3
:10276800610E000066050000A80800009C09000032
:10277800110A0000140D0000E8030000F60700002D
:102788002A080000C3080000460A0000E70300000A
:102798008A07000090070000C9070000B60800007B
:1027A80000040000F30600009B060000C8060000B5
:1027B800D6060000AD040000970600003D060000A4
:1027C8005606000056060000F20500002E0600001E
:1027D800E205000000060000250600001F070000B3
:1027E80005060000FB0500005F06000082060000E9
:1027F80059080000BB05000021060000A7060000DC
:102808001D07000016090000DA050000B3060000E5
:1028180062070000E4070000F6090000EA0500006E
:1028280077070000E7070000B0080000370A00003B
:1028380063060000440800009708000044090000EF
:102848004E0A0000D8060000B6080000B9080000CB
:102858008D090000D909000059070000E6080000AA
:10286800FC080000B109000085090000DC07000031
:10287800E5080000DF08000070090000F408000007
:102888004C080000E308000096080000AF080000AC
:1028980046080000780800005108000031080000D0
:1028A8003608000007080000D6080000EC07000002
:1028B80008080000F1070000FC07000046090000B6
:1028C8006A070000CB070000AD07000018080000E9
:1028D8006209000013070000B9070000970700000D
:1028E800320800003B090000B80600008907000014
:1028F800960700004F080000CE080000A906000057
:1029080086070000AC070000470800006D080000BB
:10291800BA0600009A070000C70700004008000038
:102928001A08000008070000A3070000ED070000D0
:102938001D080000CE07000062070000C107000064
:10294800FA07000003080000AB070000D6070000E4
:10295800D407000025080000F0070000C8070000A1
:1029680046080000D10700001E080000EB07000021
:102978000C0800009F080000C207000010080000B3
:10298800EB0700003F080000AD080000B00700009A
:102998000C080000FA07000056080000B9080000FB
:1029A8009C070000140800000808000064080000E4
:1029B800990800007C0700001108000006080000C4
:1029C800590800007E080000810700001C0800006C
:1029D8001808000056080000570800008807000083
:1029E800F7070000070800003C0800002C0800005A
:1029F800AE070000E6070000180800002E080000D7
:102A08000D080000C2070000C60700000808000003
:102A18000E080000F0070000D6070000C6070000F7
:102A2800080800000B0800000B080000F50700006C
:102A3800B2070000F0070000FE0700001F080000B2
:102A480022080000B1070000FA070000F2070000A2
:102A58001408000026080000AC070000F607000074
:102A6800F40700001408000024080000C007000054
:102A78000B080000FF0700002D08000023080000D5
:102A8800D207000009080000030800002808000019
:102A98001B080000DF070000080800000408000009
:102AA800300800001C080000F90700000D080000AD
:102AB80005080000350800001A0800000908000091
:102AC8000B08000004080000290800001608000090
:102AD800200800000C08000005080000120800008B
:102AE800110800002308000008080000FE07000085
:102AF800EB0700000F08000022080000F80700009C
:102B0800FC070000EA0700001F0800001E0800007C
:102B1800EB070000F4070000F1070000240800009C
:102B280013080000F6070000F20700000D08000077
:102B38001808000006080000F1070000EA07000076
:102B48000D08000010080000F8070000F807000052
:102B5800DD0700000908000006080000EC07000077
:102B6800F8070000E507000003080000F007000070
:102B7800DC070000F5070000E60700000308000076
:102B8800EA070000E707000006080000EF0700005A
:102B980000080000DE070000E2070000020800004D
:102BA800F2070000F9070000DA070000E307000059
:102BB80002080000FB070000EE070000D80700002D
:102BC800EE07000003080000FA070000FC070000F9
:102BD800EF07000000080000FE070000FD070000E6
:102BE80005080000FD07000006080000FF070000B8
:102BF80003080000040800000B0800001408000087
:102C08001208000008080000090800000F0800006A
:102C180015080000180800000A0800000A0800004B
:102C2800110800000C08000022080000FF0700003F
:102C38003A080000770800005A08000082080000DF
:102C4800D7080000220800004F08000070080000A4
:102C580071080000C4080000D4070000390800000B
:102C68004E0800006D08000098080000C607000024
:102C78003208000054080000530800006D080000E6
:102C88008E07000011080000310800003808000015
:102C98001E0800008D070000FB0700001508000053
:102CA80006080000EF0700007D070000E6070000A7
:102CB800F1070000DE070000C3070000A1070000BD
:102CC800E4070000E2070000CC070000BA07000094
:102CD800C2070000C5070000C3070000B7070000CF
:102CE800B3070000DC070000B5070000BA070000C2
:102CF800BC070000CD070000FB070000AA07000082
:102D0800B4070000BF070000E8070000190800002A
:102D1800BB070000C8070000DC0700000F08000020
:102D280034080000C0070000D8070000F7070000BB
:102D3800220800003A080000CB070000F507000051
:102D48001D080000360800004B080000D4070000EA
:102D5800040800002D080000400800004B0800008F
:102D6800E407000015080000320800002A080000E7
:102D780030080000EC070000010800001B080000F4
:102D88000308000009080000FD070000FD07000017
:102D980015080000000800000408000013080000DF
:102DA800F407000001080000F8070000F70700001A
:102DB80015080000EC070000FB070000F5070000FD
:102DC800FA0700001B080000D9070000F8070000F8
:102DD800F4070000FF0700001C080000D1070000EE
:102DE800FF070000F60700000708000017080000AA
:102DF800D007000003080000F907000012080000CF
:102E080010080000D607000008080000FD070000B1
:102E18000C0800000A080000DD070000090800008F
:102E2800FC070000FE070000FA070000E5070000A5
:102E38000E080000FC070000F9070000F307000077
:102E4800EE0700000C080000F8070000F607000075
:102E5800F4070000FC070000FE070000F50700006B
:102E6800EF070000F107000005080000ED0700006B
:102E7800F0070000F3070000FD0700000B08000042
:102E8800EE07000001080000FF0700000908000025
:102E980014080000ED0700000B08000009080000F6
:102EA8000607000007070000E9070000EB0600001E
:102EB800050B00006C0500005409000041060000E5
:102EC8006A090000B90A00009C0800000007000019
:102ED800BA0500006807000051070000C60A000094
:102EE800C7070000DC0900003A070000E4060000FC
:102EF800B6080000BC060000BA0800005D07000024
:102F0800D608000035080000430900000607000045
:102F18000308000034070000CB0600004709000042
:102F280021070000060A0000FC0700003008000026
:102F380010070000B6060000530700001F08000035
:102F48005C090000FE0700004C0900003E06000076
:102F58005B08000083070000A30700006F0800005B
:102F6800DD060000AC0800007908000075090000C3
:102F7800D607000088070000BE050000AF07000064
:102F8800F4080000FD080000AD0900009D060000DF
:102F9800B90700004A070000680800005908000047
:102FA800CF070000400700000A080000420900009F
:102FB800BB080000D0080000E4050000FB06000084
:102FC800800700000E090000060A000047080000FC
:102FD80077070000D6060000D0070000BB070000F6
:102FE8005F0800006B07000089080000B6080000B1
:102FF8004A080000C1080000EF060000480700006A
:103008005307000015080000A4080000C7080000C6
:10301800D807000004080000CC0700006A07000079
:103028005F080000200700003A08000020080000A0
:10303800750800009D080000B50700004F07000054
:1030480048070000E507000032080000F808000003
:10305800D207000024080000C80700009C070000F1
:103068002F08000062070000E80700003008000091
:1030780081080000940800004B0800003C0700008D
:103088008D070000A3070000E6070000D208000033
:1030980001080000530800001C080000B8070000E1
:1030A80009080000BC070000890700001B08000091
:1030B800330800006808000098080000A70700000F
:1030C800C90700009A070000A40700004308000091
:1030D800280800002D0800005E080000E607000030
:1030E800FD070000ED0700005B0700000408000072
:1030F800F00700004E08000095080000EF070000E8
:10310800BF070000C70700009F070000F407000082
:103118000E08000092080000A00800002008000027
:103128002209000047080000440800009808000031
:10313800540800008C0A0000890700004E080000AF
:1031480095080000AC080000A20A00006B07000008
:103158002A080000E4080000C6080000E80A000089
:10316800220700000F080000EA0800008B08000092
:103178001C0A0000BF060000F4070000F308000066
:103188007F080000C4090000D0060000ED07000019
:1031980082080000340800005A08000009070000EF
:1031A800A6070000640800003808000002080000B4
:1031B800D90700005A070000F9070000AC07000013
:1031C8006C0700000108000042070000C207000069
:1031D800BA0700009A0700006D08000016070000F3
:1031E8003907000073070000750700009208000007
:1031F8001307000052070000C2070000AB070000D9
:10320800E7080000C506000059070000AF070000E6
:10321800B307000008090000C9060000D207000033
:1032280004080000000800000F090000FE06000066
:10323800EC0700001308000041080000C408000063
:1032480080070000030800004E0800004E08000038
:1032580071080000E307000001080000840800006E
:10326800580800007E080000380800001208000016
:1032780064080000310800004C08000088080000BD
:103288004908000042080000270800003108000033
:10329800C0080000E80700000C080000F007000064
:1032A8000908000011090000A5070000080800002F
:1032B800BC070000EA0700000409000049070000F5
:1032C800D7070000A8070000F5070000C70800009E
:1032D80038070000A7070000A1070000DB0700006F
:1032E800540800005007000098070000E10700009C
:1032F800E5070000370800006E07000076070000A9
:10330800D80700009D070000FB0700007D070000AC
:10331800C50700000C080000CB070000E20700000A
:103328008F070000C7070000E4070000C907000076
:10333800DA070000FD07000001080000200800006F
:10334800D4070000CF07000044080000D0070000A1
:1033580031080000CA070000F8070000AD080000A7
:10336800FF07000036080000D2070000020800002E
:10337800BA080000E5070000020800000508000080
:1033880015080000AE080000D207000085080000FC
:10339800F007000034080000BA07000071080000B8
:1033A80052070000BE09000065070000660900001A
:1033B800970600009D080000930700001C09000004
:1033C800B207000061080000F70700009508000038
:1033D8006F080000A8070000F50700009407000028
:1033E80092080000D5070000D20800008E070000F0
:1033F8009F0800007C0700006C0800003B070000E5
:10340800AB080000780700000B090000190700004E
:10341800B20800008B0700007B080000620700006C
:103428001C0800009D0700008C080000DA07000057
:10343800FB0700001608000076070000B10800002E
:10344800FB060000910800005B070000D20800009E
:103458008D07000061080000CB060000B4080000DA
:1034680038070000E60800000107000054080000C3
:1034780099070000A9080000A30700001008000031
:10348800530700003B080000CC0700003308000089
:10349800F5070000CD07000043080000840700007E
:1034A800440800006D0700009F080000680700003E
:1034B800970800003D07000083080000CA070000C5
:1034C80011080000DB070000D607000042080000D2
:1034D800FE0700001D080000D3070000FA070000DF
:1034E8001208000014080000A8070000F4060000F5
:1034F8000A080000C4060000480B0000010600008E
:103508004E090000040900005B0900003C080000A7
:103518001606000048070000A5060000BF090000C5
:1035280008060000130900004F090000B408000055
:10353800A80900006F06000066070000B106000039
:10354800B108000018060000A90800002A090000B8
:10355800CA080000F50900006306000062070000C1
:10356800B106000009080000A20600008C0800004F
:10357800F208000002090000E009000070060000DF
:1035880050070000E4060000880700003D0700001F
:1035980070080000E708000020090000CC090000BE
:1035A800480600006F070000F506000096070000B7
:1035B8000D0800002D08000005090000BC080000E7
:1035C800A20900006E060000750700000D07000044
:1035D8008E070000B208000027080000E608000077
:1035E800D1080000D3080000C706000093070000B8
:1035F8007F060000CF060000F60700008B070000DA
:10360800FD08000037090000CE090000DD070000B2
:10361800EB070000D7060000B7060000030800000B
:10362800CC060000A2080000050900005F090000A0
:103638007208000046080000460700006F070000F7
:103648008B0700005D060000510800007B080000A1
:10365800C3090000F708000076080000BA07000058
:1036680026070000E1070000E60500001208000038
:103678003B0800001C090000F80900006B08000066
:103688000E080000810700002E0700004B0600000E
:1036980084070000DF0700003D090000E40900007E
:1036A800980800004D0800004E070000240700009D
:1036B8006306000091070000D607000024090000F7
:1036C800E9090000900800004708000056070000BC
:1036D800CD0600008D0600006D070000E30700001E
:1036E80035090000A509000068080000600800000E
:1036F8005C07000011070000BA0600004A07000036
:10370800E8070000F0080000DE09000006080000D5
:103718008F08000048070000280700006307000022
:1037280014070000E00700009A080000C80800001D
:10373800DD070000FD0700008D070000D30700002B
:1037480035080000CC070000D8070000400800003A
:103758005D080000CC070000240800008107000075
:103768000908000058080000BD070000090800000B
:10377800DF07000037080000D80700002508000010
:10378800D70700004508000040080000C9070000EE
:10379800E2070000DD0700002A080000DC0700003F
:1037A8001F080000F90700004908000092080000FF
:1037B80099070000C50700009A070000F2070000FB
:1037C80025080000F607000005080000480800006A
:1037D80089080000CD070000B1070000930700002A
:1037E800F30700001C08000034080000D40700009C
:1037F8004708000041080000C9070000E50700006D
:1038080073070000020800002608000016080000E0
:103818001D080000010800002A080000CD0700006C
:10382800F1070000D7070000DA0700002C080000A5
:10383800E707000022080000FF0700001708000043
:10384800BC070000DB070000E8070000F9070000DC
:1038580033080000F3070000DB070000060600003D
:103868002B060000A3080000100B0000DB07000077
:1038780083060000720500002307000026090000E7
:1038880064090000D9080000AE0600000307000024
:1038980019070000D5090000470A0000E7090000E1
:1038A800E1050000C30600009E080000240C00008B
:1038B800200900006E080000110700006D090000D3
:1038C800C1070000FB090000170A0000160A0000E3
:1038D8000C060000E8070000C6090000470C0000BD
:1038E800A607000041070000BB070000500A0000BF
:1038F800140800007F090000C8090000360900000C
:10390800B5050000BF070000F90900001B0B000007
:10391800A2060000200700001B080000B6090000EE
:1039280050070000A208000044080000D607000065
:1039380093050000470800007E09000062090000A6
:10394800A5050000AD060000A7070000B6080000A6
:103958002F070000060800007E0700003907000056
:1039680026060000660800007D080000F907000030
:10397800E705000013070000B70700007D080000F6
:103988006F0700008C070000EB060000F50600003A
:10399800840700007E080000F90700005C070000AB
:1039A800340700007F070000AE070000D6070000BC
:1039B80023080000C407000084070000D6070000A1
:1039C8008D080000D60700005E070000AF07000062
:1039D8007008000007080000B40800003B08000059
:1039E800160900009707000093070000C2070000AF
:1039F800E9080000E107000043080000C3080000D0
:103A0800DC080000A7070000340800002E080000AA
:103A1800EF0800000807000017080000CC080000A5
:103A2800A9090000280700000A0800001B08000078
:103A3800BA0800004D0700001E0800006F080000CB
:103A48001309000060070000F30700007908000070
:103A5800B1080000170700005B080000E907000034
:103A6800990800004907000060080000EB07000003
:103A780022080000CF060000550800007C0800005E
:103A88000A08000032070000DD070000FD070000FB
:103A98000D0800006B07000049080000040800003A
:103AA80004080000180700003C0800001008000087
:103AB8001408000053070000D5070000370800006D
:103AC80056080000F5070000A90700004A07000093
:103AD800B6070000B90700009C0800003C08000079
:103AE80032080000E7070000F4070000BD070000E7
:103AF800EC070000C0070000BB0700000608000034
:103B0800380800009B08000035080000DC070000AA
:103B1800A8070000E1070000B4070000190800002A
:103B28006D080000150800001208000008080000D1
:103B380065080000260800007A070000A7070000B3
:103B4800F00700006C080000CE07000042080000E3
:103B58001108000044080000B4070000CF07000067
:103B6800FC0700000D080000BC070000E707000084
:103B7800320800006C080000D3070000EC070000C2
:103B8800BE070000EA070000A007000011080000B7
:103B9800F00700004C080000B80700000908000002
:103BA8001208000001080000B9070000C40700005F
:103BB800CD070000D4070000F10700000708000047
:103BC8003C0800001708000091070000EB07000000
:103BD800AB0700000C080000C2070000D707000070
:103BE800E90700003408000013080000FA07000085
:103BF800DC070000CE070000C5070000C80700006A
:103C0800F00700003D0800000F0800000108000050
:103C1800DD070000F4070000EA07000001080000C3
:103C2800DE07000017080000070800000C08000065
:103C380026080000F5070000FF070000DE07000067
:103C48002F080000250800002A08000011080000BD
:103C58000408000024080000F30700000908000019
:103C6800330800001B0800000208000023080000B9
:103C7800310800000D08000000080000E0070000FF
:103C88000A080000330800001D0800003A08000078
:103C98002A080000EC070000DD0700000B08000000
:103CA8000508000017080000120800000A080000B4
:103CB800270800000C080000F107000000080000B9
:103CC80007080000E80700001B08000000080000C3
:103CD8001808000019080000FF070000F10700009D
:103CE800F2070000F9070000F707000013080000BA
:103CF8000D080000180800001D080000D10700008A
:103D0800E5070000F5070000150800002908000075
:103D18000208000001080000FA0700000808000077
:103D2800F0070000FF070000090800000008000075
:103D3800F80700000D0800000D0800003907000012
:103D4800C8070000080800003F08000075070000C9
:103D580057070000A407000033080000C707000049
:103D6800E70700009F070000930700009407000082
:103D78000B0800000B0800000E0800008707000071
:103D8800A9070000E4070000280800001F08000039
:103D9800ED070000AC070000AF07000002080000B4
:103DA80034080000420800000B080000F10700007A
:103DB800DB070000220800002F080000640800004C
:103DC800F9070000E707000020080000630800006A
:103DD8002E0800001E080000030800002308000049
:103DE800ED070000320800004708000070080000D6
:103DF800DD070000D807000025080000860800003D
:103E080009080000FB070000E00700001A0800008E
:103E18000F08000032080000220800002C080000EB
:103E28009007000000080000350800004D08000059
:103E3800C6070000D9070000DC0700002A080000B8
:103E4800E80700000A080000F1070000FF0700006B
:103E58009D0700000B0800001F0800002108000053
:103E6800C1070000CB070000E50700001C080000A0
:103E7800D307000017080000FE0700000308000031
:103E8800CF070000F6070000050800000208000040
:103E9800E1070000F8070000FB0700000408000025
:103EA800EF0700001508000011080000F0070000E7
:103EB800D0070000010800000508000018080000ED
:103EC800E4070000FE0700001408000019080000BD
:103ED800F4070000F3070000F507000003080000DE
:103EE8001008000003080000170800001A08000066
:103EF8000A080000F1070000060800001408000086
:103F080010080000F4070000FC0700000B08000080
:103F18002E080000F8070000120800000108000041
:103F28001D08000005080000170800001C08000014
:103F380011080000EE070000080800001308000040
:103F48002B080000FC0700000D0800000308000013
:103F580002080000F10700000F0800001608000022
:103F680019080000EF07000003080000FA07000026
:103F780021080000EB07000001080000F20700001C
:103F8800F70700000B08000006080000F40700000F
:103F9800F6070000EB07000000080000FE0700001D
:103FA80002080000F507000004080000E10700000F
:103FB800F10700000508000006080000E8070000F7
:103FC80006080000F507000012080000E2070000DC
:103FD800FD070000EF070000FF070000EE070000E4
:103FE800070800000208000001080000DB070000C5
:103FF80011080000F707000008080000EF0700009C
:10400800FD0700000F080000FB070000FA0700008A
:104018000808000010080000F6070000FE0700006E
:10402800000800000B080000F3070000F907000073
:10403800F60700000F080000E2070000080800006B
:104048001408000004080000F2070000F30700004D
:10405800010800000C080000EC070000010800003F
:10406800FC0700000F080000EB0700000D08000027
:104078000F08000001080000E9070000EA07000037
:10408800050800000A080000FB07000004080000FB
:1040980008080000F9070000EC070000000800000D
:1040A80011080000E0070000E60700000208000011
:1040B8001B08000012080000E9070000F5070000CF
:1040C800FB070000F1070000FB07000008080000DC
:1040D80013080000E8070000F207000002080000CB
:1040E80008080000F4070000DD07000003080000CE
:1040F8000A080000FD070000FD070000F90700009E
:10410800FF070000EE070000F8070000070800009E
:10411800F9070000FC070000DF070000090800009D
:104128000E08000001080000FC070000F40700006A
:10413800FE070000FE07000009080000DA0700007B
:10414800F40700000C080000060800001108000031
:10415800EF070000ED07000000080000F20700006C
:10416800DE07000006080000140800000808000028
:1041780011080000E9070000FD070000F40700002F
:10418800FB070000E8070000090800000908000014
:104198000B08000022080000E6070000F7070000EF
:1041A800F1070000FF070000FE07000002080000FA
:1041B80014080000110800001A080000E3070000B6
:1041C800ED070000FF070000FE07000004080000DC
:1041D80001080000090800001B0800001108000081
:1041E800F2070000FB070000FA070000F7070000CD
:1041F800FF07000012080000000800000E08000079
:1042080005080000F207000002080000F10700009E
:10421800FF07000012080000ED0700000408000076
:10422800BA09000093090000DD07000063060000DA
:1042380093060000A3080000A0090000EC08000095
:10424800320700005D0600003B070000E10800009F
:10425800B50900006B080000CE06000074060000D7
:10426800A80700004E0900004A090000FC070000EA
:10427800B3060000D30600003108000069090000F9
:10428800FD080000670700008B06000035070000E6
:10429800B80800006F0900008908000050070000F6
:1042A800BF06000082070000C20800001A090000CB
:1042B8003F0800001407000013070000080800006A
:1042C800F8080000DA080000CF070000FE0600002A
:1042D800260700003C080000FF080000B70800009F
:1042E800C2070000170700008B0700006A080000DB
:1042F800CF08000055080000820700003A070000B8
:10430800D20700008F080000C50800002908000037
:104318007707000053070000EF070000800800003F
:104328008B0800000F080000770700009C070000BA
:104338002A0800008608000061080000CB0700007A
:1043480079070000B8070000430800007108000062
:104358004F080000E6070000D9070000EA07000040
:10436800E707000000080000160800001A0800000F
:1043780000080000EC070000ED070000FE07000041
:104388001A0800000A080000F5070000E607000008
:10439800F7070000040800000A08000004080000ED
:1043A800FF070000F9070000EE0700000008000002
:1043B8000308000005080000F107000012080000CB
:1043C80002080000FB070000FC07000003080000CB
:1043D8000F080000FE070000FA070000FB070000B6
:1043E80000080000FD070000070800001208000090
:1043F800F4070000EA070000F207000013080000B5
:104408001308000007080000FB070000F70700007A
:10441800F6070000080800000C0800001508000056
:10442800F2070000E7070000FF0700000C08000083
:10443800110800000B080000F8070000EB07000057
:10444800EE0700000A080000190800001308000021
:10445800EF070000F4070000FC070000FE0700005B
:104468001008000003080000F8070000EB07000030
:10447800F8070000170800000F08000003080000F4
:10448800F2070000F1070000F1070000A005000096
:10449800EC0800006B080000950900005E030000AE
:1044A80051060000A10800000A0B00001A050000D0
:1044B800FC0500007806000078080000B50500003B
:1044C8002E080000DC07000048070000190400005F
:1044D800D6060000940800006D0800004E05000094
:1044E8001106000005070000F1070000F6060000AD
:1044F800AE0700004D0700006A0600002306000012
:10450800E7070000EE080000C90700007B0600006E
:10451800A50600000F0800004F0800007C080000F6
:10452800CC0700009A070000130700008B08000062
:1045380091080000250900009B070000FD07000006
:104548009F070000FA080000030900006F09000037
:1045580097070000E3070000FC070000ED090000D2
:10456800BC080000CF0800009E070000F708000004
:10457800FF07000045090000E30800005F0900008C
:104588001F0700000F0800009A0800003C0A0000FE
:1045980005080000F0070000A50700002109000039
:1045A800E8070000DB08000070080000A50800000C
:1045B800CF060000160800008A0800006209000003
:1045C800240700008C07000093070000BD080000C6
:1045D8009C07000039080000BE070000F007000033
:1045E800C20600001D080000580800007D080000F1
:1045F800B70600006F070000990700006C0800006C
:104608006C0700000608000076070000AD070000F0
:1046180007070000370800000C080000F207000038
:10462800EA0600009D070000DA0700003E080000C7
:10463800AD070000D60700007807000090070000CB
:10464800C20700005A08000007080000BE07000063
:104658009F070000EF070000EC0700002E0800008D
:104668003B080000E90700007A070000E80700009F
:104678008608000048080000CA070000D2070000AA
:10468800400800001B080000060800003D08000064
:1046980086080000D3070000AD0700003D080000B1
:1046A800CD080000FE070000CA0700000D08000042
:1046B8009B080000EF0700000F0800003D080000FD
:1046C8005E080000AB070000000800005608000064
:1046D80076080000A1070000EA0700002108000092
:1046E80050080000BF0700001A0800000408000076
:1046F8000C0800009D0700001C0800009F0800002F
:104708000A0700009F0A0000B408000047060000DE
:10471800EF0400000A0B0000C60900008C06000028
:1047280004040000AE0800009E0800002E070000E8
:10473800590600004D08000042070000150500005A
:10474800DE060000D108000086080000770400009B
:1047580047060000EB06000054090000EC050000C5
:10476800A8070000DC050000A20700007E05000085
:10477800060900009E070000400800002005000010
:1047880092070000810700000D090000440700009F
:10479800BF070000C10600008107000049080000AB
:1047A800D30800003608000004070000CE07000008
:1047B800D70700000F0900006C0800003809000046
:1047C80034070000E4070000B3070000510A0000A6
:1047D8009208000062080000ED0600004C09000085
:1047E8007D080000140900007C0800002D09000065
:1047F8009A070000A707000012090000350A000008
:10480800C5080000D0060000330800002009000099
:1048180046090000D8070000060900004308000008
:10482800EE07000042070000A60900003D0900004D
:10483800F20700008B060000330800002E09000074
:10484800440800009E070000030800002708000035
:1048580053070000D7070000BB08000080080000CD
:10486800D50600000007000030080000B20800006C
:104878009C07000064070000A5070000BC070000B3
:104888006D070000E007000038080000A5070000D9
:10489800F60600006E070000340800002E0800002D
:1048A800A70700004F070000930700009D070000BE
:1048B8000108000007080000F20700005407000084
:1048C800AF070000C507000037080000D807000040
:1048D800080800007C070000D5070000C807000092
:1048E800B3080000F1070000CD07000066070000CC
:1048F800800800000E0800003C080000C007000007
:104908009A080000AC0700000C080000010800002D
:1049180002090000C0070000EC070000D7070000EC
:10492800EB080000FA07000029080000080800004A
:104938008E080000A30700002B0800005B08000099
:10494800B4080000A1070000DD0700003C080000D3
:104958009F080000C9070000FE07000021080000AA
:1049680046080000A40700002108000053070000C3
:10497800E5070000B1080000ED050000FD05000096
:104988008E060000950A00005E080000C7070000B8
:104998003A0A0000F70600004D0800009A060000D9
:1049A80072070000010800001F08000051090000FC
:1049B80095060000FE080000150900008B050000A0
:1049C800B80700003E080000690900000106000061
:1049D800AA070000E3090000C5050000440700001D
:1049E800CA080000380900004E070000020700004E
:1049F800020A00006806000073060000C1070000F4
:104A0800E4070000E0080000F3070000030A0000C4
:104A1800BF070000040700003F070000C4050000AE
:104A28007108000053080000B00800002E090000BB
:104A3800A1080000F408000047050000680700000E
:104A4800BD070000B00600001E080000AD09000008
:104A58008B0A00006007000087070000A308000019
:104A6800C9050000BA06000001080000100A00008D
:104A78009C0800004B080000DE0900009A070000AF
:104A8800FC060000E106000057070000AF08000020
:104A98000E08000082090000B0080000DE080000CF
:104AA800E407000040060000330800008E080000FC
:104AB80028080000CD07000093080000370900000F
:104AC8004706000005080000B808000017080000A5
:104AD800550700003E080000880900007207000022
:104AE80039070000BE080000A7070000EF07000014
:104AF8007507000017090000FD0700009F07000068
:104B0800EC0700008C0700001B08000004080000E8
:104B1800C507000083080000ED0700004B080000EF
:104B280003070000440800001508000032070000D1
:104B3800F6070000A40800008F0800004A070000DC
:104B4800CA070000B0080000140700008C07000026
:104B580062080000AB080000BA070000B4070000B4
:104B6800C208000082070000790700000E08000054
:104B7800430800001E080000C2070000600800008B
:104B880011080000CD070000D207000079070000D7
:104B98004308000046080000E50700000E08000072
:104BA800350800004108000044070000FD07000028
:104BB8006C080000B1070000A507000044080000C9
:104BC8008F0800008D0700008807000071080000AA
:104BD800B7070000A507000003080000310A00001D
:104BE8002E07000046070000A50400002A08000060
:104BF8006A090000B8090000270800004C060000F8
:104C0800570900007C0700003B0900005B08000012
:104C1800A805000019070000F8070000CF0A0000E7
:104C28009A0800000D080000A6070000B70400005D
:104C3800800700004C090000000A0000AE070000D1
:104C48008C060000EE080000F00600003E08000098
:104C580039080000EA060000350700006807000070
:104C68003F0A00005A080000D80700002E0700007D
:104C7800C6050000E4070000BE0800008109000026
:104C8800CF070000FD0600001A0800008206000099
:104C9800BC08000083080000D50700003C0700009E
:104CA8005C07000047090000CB0700002D08000042
:104CB800DF070000A7060000AA070000910800000F
:104CC80093090000F4070000300700000208000004
:104CD800E60600008B0800009E080000B5080000EA
:104CE80074070000A0070000D00800002D0800008D
:104CF8000308000030080000220700001F08000019
:104D0800500800004D09000022080000C6070000F6
:104D1800EA070000230700004C080000C108000053
:104D280062080000DC070000DC070000D308000070
:104D380059070000D40700003D0800000B080000D8
:104D48000F0800002A080000C9080000B707000083
:104D58007E070000320800009D0700005008000090
:104D68001508000069080000D2070000E6070000E7
:104D78003708000094070000DD0700002F08000036
:104D8800C307000022080000FF0700009F0800007A
:104D980072070000C3070000F6070000890700003B
:104DA800FF0700006908000099080000C907000013
:104DB800AA070000320800007F070000E70700008C
:104DC8002908000024080000FE0700000908000068
:104DD8006A080000A4070000BB070000FB070000EA
:104DE800B0070000EF0700003A0800006108000063
:104DF800E6070000C40700001C080000AF07000019
:104E0800DA070000250800000F0800000D08000060
:104E1800FE0700004C0800009F070000C8070000BC
:104E28001A080000C90700000B080000320800003B
:104E380073080000CC070000A30700000C0800005E
:104E4800C6070000F507000035080000E00800006C
:104E5800550A000048090000D70900002B0F000080
:104E68000C080000E1090000560A0000630A00006F
:104E7800E80E0000A9060000D2090000420900005F
:104E8800900900008D0C000036060000FE090000A5
:104E980068090000DC090000700B00002E05000006
:104EA800000900009C080000B40800001F09000069
:104EB8008E0500000F090000210800000C08000002
:104EC800EE070000C8050000C607000056070000EE
:104ED80065070000C506000099060000920700005B
:104EE8000C0700000A070000180600006D07000004
:104EF800A6060000E2060000A90600002D06000034
:104F080077080000AA060000DC06000086060000FC
:104F1800AD06000035090000230600003F07000029
:104F2800CF0600005D070000B2090000B3060000CC
:104F3800840700001307000010080000240A00007E
:104F48008A060000EF070000C2070000D30800002F
:104F5800D1090000CA06000040080000400800000F
:104F6800DD080000A009000005070000BF080000D8
:104F7800CE080000030900001D09000070070000AA
:104F8800C808000091080000AD0800008308000070
:104F9800A10700005E0800007B080000250800004B
:104FA800B907000001080000820800006E08000030
:104FB800C9070000AA070000B0080000FD070000AC
:104FC8000D080000C9070000B20700002C09000006
:104FD800A8070000D607000054070000C407000017
:104FE8003509000057070000C107000064070000EA
:104FF800E50700000A0900000D070000A6070000E9
:1050080032070000FF070000DD080000EC06000082
:10501800ED070000B4070000280800006008000041
:10502800F5060000E1070000CC0700002208000098
:105038005B08000033070000EC070000D4070000FD
:10504800F50700001A0800005E07000002080000CB
:10505800130800000708000021080000C40700002A
:1050680005080000240800000C08000015080000CE
:1050780049080000140800001C080000FF07000091
:105088003C0800008D080000DF070000270800002A
:105098002C0800005F080000CB0800000108000091
:1050A80047080000FE07000049080000C508000086
:1050B800D90700002B080000F10700007208000063
:1050C80087080000EB07000003080000260800001E
:1050D8007508000033080000A70700002308000037
:1050E8005D0800005A08000049080000AC070000ED
:1050F80091070000E30700005F0800006C0800004B
:10510800E8070000BB0700000D080000C907000001
:10511800FC070000E4070000CC070000EA070000D5
:10512800E80700002E080000F8070000B907000093
:10513800DE07000076070000DE0700001708000001
:1051480017080000F2070000BA070000A9070000CE
:10515800BD070000BF070000F9070000C7070000EF
:10516800C1070000F6070000F8070000D00700009C
:10517800C2070000BB070000F5070000B5070000E4
:105188001B0800001F080000250800001508000083
:10519800B8070000BA070000F20700002E08000058
:1051A8003C080000E1070000020800001A0800009F
:1051B8002108000027080000F6070000DA070000B1
:1051C800DA0700003A0800006808000040080000FC
:1051D8000D080000FC070000EF070000150800009C
:1051E800400800002A080000130800000708000013
:1051F8001D0800002F08000005080000170800001F
:10520800E20700000F0800005B08000038080000F3
:1052180017080000F4070000120800001808000032
:10522800D00700001B08000011080000310800002A
:1052380020080000FE07000004080000FA0700002C
:10524800E5070000EC070000D60700000108000091
:10525800FF070000080800000C080000DE07000037
:10526800D0070000D807000008080000F807000071
:10527800D3070000F007000009080000020800003A
:10528800E007000003080000F5070000DF07000042
:10529800F1070000EA070000FD070000EF07000023
:1052A800F1070000F3070000EB07000012080000F8
:1052B800DB070000F0070000DC070000F40700002F
:1052C800F7070000F5070000F8070000E0070000F6
:1052D80000080000F6070000E2070000F2070000DF
:1052E800EE070000090800000A0800000508000091
:1052F80016080000EF070000F5070000FC07000093
:1053080004080000FC0700001C0800001908000041
:105318001A080000FE070000060800000508000043
:10532800EB070000F40700000F0800004E0800001B
:105338003D08000017080000500800005F08000042
:10534800250800002408000062080000600800002A
:10535800AD080000FD0700006B08000040080000D1
:105368005D080000A70800001C08000032080000C3
:105378006C08000080080000EA080000BA07000076
:10538800260800004F0800006B08000061080000B4
:10539800A207000043080000790800003308000055
:1053A8003B0800008E0700002008000014080000D9
:1053B800F70700001D080000BB07000012080000E6
:1053C800110800001208000000080000860700000D
:1053D800DB070000E7070000E9070000C807000036
:1053E800D2070000F6070000E4070000B30700003A
:1053F800CB070000DA070000C5070000A10700007E
:10540800CF070000DD0700001F080000A507000007
:10541800C3070000C6070000D60700000708000001
:1054280098070000D4070000EB070000E60700001B
:10543800340800009B070000DE070000DC070000BE
:10544800F807000039080000A20700000D08000056
:10545800090800001308000033080000C007000016
:1054680006080000F30700000A0800001E080000F4
:10547800CF07000019080000060800001008000007
:1054880002080000D807000010080000010800000A
:10549800050800000E0800000B08000021080000A5
:1054A800F6070000000800000308000008080000D4
:1054B800EF070000FC070000010800000A080000D0
:1054C8001508000001080000FD070000EA070000B9
:1054D800FB07000022080000EB070000F8070000A7
:1054E800EF0700000708000013080000D6070000B7
:1054F800EB070000E9070000EF07000011080000B3
:10550800CE070000F4070000F6070000EE070000D1
:105518000F080000CB070000EB070000F4070000AD
:10552800EC07000016080000C9070000F907000092
:10553800F6070000F607000007080000CE07000085
:10554800FC070000EE070000FA0700000D08000045
:10555800DD070000FE070000EA070000FB07000067
:10556800F6070000F60700000E080000F307000029
:1055780004080000FE07000007080000FF070000FD
:10558800F3070000100800000708000024080000C6
:1055980004080000FB07000003080000780700006B
:1055A800AF080000100B00004C0900006C07000059
:1055B800FB0400001F060000020900005509000056
:1055C800AE0B0000E2060000C60700008E070000D0
:1055D800AA050000940900003506000051090000E2
:1055E800570900006A070000C20A0000D30500003E
:1055F8003508000072070000130600009E0900002D
:10560800B8060000390A00005809000069070000C0
:105618006A080000C2040000CB0700007A080000F6
:10562800ED080000070A0000D9060000F207000094
:10563800C1070000D707000073080000BC0600007F
:105648007207000070080000710900006809000076
:10565800CB0700007406000088060000ED07000074
:10566800C10800007F090000FE070000EC070000E9
:105678000E080000310700008B080000FD0600003E
:10568800D807000058080000D7070000DD0900000F
:1056980073070000240800006307000045060000A7
:1056A800B00800004307000078090000EE08000079
:1056B8006A070000830800000F0600001C080000AD
:1056C80061080000C7070000F7080000EC060000AA
:1056D800740800004E080000930700004F080000FF
:1056E800B2060000DD0700004F0800006608000051
:1056F8001A0900008F070000A90700007B070000B7
:10570800AC07000053080000F20700003A08000048
:105718005A0800005E0800001C080000AB070000E3
:105728002F070000A7070000440800006E080000CB
:10573800DF080000B8070000E4070000DE070000EB
:105748007807000044080000600700002F080000E8
:105758008F0800001C080000EF0800004407000044
:105768009A070000AB07000089070000FC0800004A
:10577800C207000074080000290800008007000024
:10578800860800003007000011080000FE0700002E
:10579800CF070000F7080000B2070000510800001A
:1057A800C107000083070000610800007E070000B1
:1057B800630800002A0800002D08000063080000A4
:1057C80085070000F0070000D90700000E08000058
:1057D8003708000012080000120800000B0800003B
:1057E80027080000E7070000E4070000AA070000F8
:1057F800F90700007E0800001A0800005F08000092
:10580800A4070000C1070000EB07000045090000DD
:10581800B4080000F908000088070000CC07000061
:105828005A0900006908000008090000DC070000A8
:10583800E10900003B080000360800001F090000CD
:10584800E3070000BC0A00000E080000280800005A
:105858004A0900007A080000910B0000390700008F
:10586800ED070000F8080000A80800002F0B000052
:10587800E20600000A080000F6080000F60800002A
:10588800CD0A00006B060000DE0700006E0800006D
:10589800CC080000A90900007E060000F6070000F9
:1058A8004E0800009B080000E50800009E06000066
:1058B800C8070000ED07000035080000F4070000E5
:1058C800F9060000D10700008C070000DD07000082
:1058D8006B0700009D070000840700001E070000FA
:1058E80080070000EE0600002408000042070000C0
:1058F8000B0700006D070000D6060000A308000093
:10590800DF0600001907000067070000DD06000039
:10591800BA080000A2060000540700007D07000036
:105928004807000006090000A60600007F070000DF
:1059380090070000A0070000E7080000E906000043
:10594800D3070000EA070000FD070000E208000096
:1059580029070000010800000B08000033080000B8
:10596800B1080000860700003D0800004A08000052
:1059780067080000730800000508000070080000B0
:10598800730800007808000031080000790800005A
:1059980057080000550800005B08000037080000A1
:1059A800F708000042080000470800003E08000011
:1059B8002108000024090000110800003E0800002A
:1059C800310800003808000020090000D307000053
:1059D80007080000180800003C080000F50800004F
:1059E80099070000E00700000C0800001D080000EF
:1059F800C008000056070000BD0700000C080000A2
:105A0800F70700007F0800005C070000BE070000E1
:105A1800FB070000D107000020080000680700000D
:105A2800C707000012080000B8070000CB070000F5
:105A380094070000D1070000080800008A0700004A
:105A480099070000BC070000D20700000108000009
:105A58008807000081070000EE070000CA07000061
:105A6800FD0700009D070000A107000027080000AF
:105A7800BD070000DE07000005070000050900005B
:105A880004070000E508000016070000720800007F
:105A98001C0700004F080000B70700001F0800009F
:105AA800630800004F07000028090000D70600001F
:105AB800F40800003B0700002C0900000007000064
:105AC8002B0900009E0600003E0A0000AF060000F9
