:020000040800F2
:1000000000000220B9210008251700082717000862
:10001000291700082B1700082D1700080000000002
:100020000000000000000000000000002F17000882
:1000300031170008000000003317000835170008CA
:1000400009220008092200080922000809220008E4
:1000500009220008092200080922000809220008D4
:1000600009220008092200080922000809220008C4
:1000700009220008092200080922000809220008B4
:1000800009220008092200080922000809220008A4
:100090000922000809220008092200080922000894
:1000A0000922000809220008092200080922000884
:1000B0000922000809220008092200080922000874
:1000C0000922000809220008092200080922000864
:1000D0000922000809220008092200080922000854
:1000E0000922000809220008092200080922000844
:1000F0000922000809220008092200080922000834
:100100000922000809220008092200080922000823
:100110000922000809220008092200080922000813
:100120000922000809220008092200080922000803
:100130000922000800000000000000000922000859
:1001400009220008092200080922000809220008E3
:1001500009220008092200080922000809220008D3
:1001600009220008092200080922000809220008C3
:1001700009220008092200080922000800000000E6
:10018000000000000922000800000000000000003C
:1001900009220008000000000000000009220008F9
:1001A000000000000000000000000000092200081C
:1001B0000922000809220008092200080922000873
:0401C0000922000808
:1001C80010B5054C237833B9044B13B10448AFF389
:1001D80000800123237010BD2000002000000000D3
:1001E8006422000808B5034B1BB103490348AFF369
:1001F800008008BD000000002400002064220008E0
:1002080081F0004102E000BF83F0004330B54FEABF
:1002180041044FEA430594EA050F08BF90EA020F2C
:100228001FBF54EA000C55EA020C7FEA645C7FEABF
:10023800655C00F0E2804FEA5454D4EB5555B8BFE2
:100248006D420CDD2C4480EA020281EA030382EA53
:10025800000083EA010180EA020281EA0303362DE5
:1002680088BF30BD11F0004F4FEA01314FF4801CB8
:100278004CEA113102D0404261EB410113F0004FCA
:100288004FEA03334CEA133302D0524263EB430381
:1002980094EA050F00F0A780A4F10104D5F1200E1F
:1002A8000DDB02FA0EFC22FA05F2801841F100017A
:1002B80003FA0EF2801843FA05F359410EE0A5F14E
:1002C80020050EF1200E012A03FA0EFC28BF4CF07F
:1002D800020C43FA05F3C01851EBE37101F0004535
:1002E80007D54FF0000EDCF1000C7EEB00006EEB42
:1002F8000101B1F5801F1BD3B1F5001F0CD34908CC
:100308005FEA30004FEA3C0C04F101044FEA445222
:1003180012F5800F80F09A80BCF1004F08BF5FEAA9
:10032800500C50F1000041EB045141EA050130BD89
:100338005FEA4C0C404141EB0101013C28BFB1F59B
:10034800801FE9D291F0000F04BF01460020B1FAE6
:1003580081F308BF2033A3F10B03B3F120020CDAB9
:100368000C3208DD02F1140CC2F10C0201FA0CF097
:1003780021FA02F10CE002F11402D8BFC2F1200CFC
:1003880001FA02F120FA0CFCDCBF41EA0C019040B2
:10039800E41AA2BF01EB0451294330BD6FEA0404FB
:1003A8001F3C1CDA0C340EDC04F11404C4F12002E6
:1003B80020FA04F001FA02F340EA030021FA04F3F8
:1003C80045EA030130BDC4F10C04C4F1200220FA4F
:1003D80002F001FA04F340EA0300294630BD21FA8D
:1003E80004F0294630BD94F0000F83F4801306BF53
:1003F80081F480110134013D4EE77FEA645C18BF47
:100408007FEA655C29D094EA050F08BF90EA020FDD
:1004180005D054EA000C04BF1946104630BD91EAD5
:10042800030F1EBF0021002030BD5FEA545C05D1D8
:100438004000494128BF41F0004130BD14F5800417
:100448003CBF01F5801130BD01F0004545F0FE418B
:1004580041F470014FF0000030BD7FEA645C1ABFC0
:10046800194610467FEA655C1CBF0B46024650EAF7
:10047800013406BF52EA033591EA030F41F4002123
:1004880030BD00BF90F0000F04BF0021704730B5A9
:100498004FF4806404F132044FF000054FF000017E
:1004A80050E700BF90F0000F04BF0021704730B53F
:1004B8004FF4806404F1320410F0004548BF404214
:1004C8004FF000013EE700BF42004FEAE2014FEA69
:1004D80031014FEA02701FBF12F07F4393F07F4F44
:1004E80081F06051704732F07F4208BF704793F047
:1004F8007F4F04BF41F40021704730B54FF460745A
:1005080001F0004521F000411CE700BF50EA01025C
:1005180008BF704730B54FF000050AE050EA010205
:1005280008BF704730B511F0004502D5404261EB75
:1005380041014FF4806404F132045FEA915C3FF4B6
:10054800D8AE4FF003025FEADC0C18BF03325FEA53
:10055800DC0C18BF033202EBDC02C2F1200300FA04
:1005680003FC20FA02F001FA03FE40EA0E0021FA29
:1005780002F11444BDE600BF70B54FF0FF0C4CF417
:10058800E06C1CEA11541DBF1CEA135594EA0C0FC9
:1005980095EA0C0F00F0DEF82C4481EA030621EA04
:1005A8004C5123EA4C5350EA013518BF52EA03353F
:1005B80041F4801143F4801338D0A0FB02CE4FF0F1
:1005C8000005E1FB02E506F00042E0FB03E54FF021
:1005D8000006E1FB03569CF0000F18BF4EF0010E19
:1005E800A4F1FF04B6F5007F64F5407404D25FEA15
:1005F8004E0E6D4146EB060642EAC62141EA5551C8
:100608004FEAC52040EA5E504FEACE2EB4F1FD0C09
:1006180088BFBCF5E06F1ED8BEF1004F08BF5FEA87
:10062800500E50F1000041EB045170BD06F0004639
:1006380046EA010140EA020081EA0301B4EB5C04E6
:10064800C2BFD4EB0C0541EA045170BD41F48011DE
:100658004FF0000E013C00F3AB8014F1360FDEBF03
:10066800002001F0004170BDC4F10004203C35DADF
:100678000C341BDC04F11404C4F1200500FA05F362
:1006880020FA04F001FA05F240EA020001F0004203
:1006980021F0004110EBD37021FA04F642EB060179
:1006A8005EEA430E08BF20EAD37070BDC4F10C04A3
:1006B800C4F1200500FA04F320FA05F001FA04F267
:1006C80040EA020001F0004110EBD37041F1000153
:1006D8005EEA430E08BF20EAD37070BDC4F120055E
:1006E80000FA05F24EEA020E20FA04F301FA05F2C6
:1006F80043EA020321FA04F001F0004121FA04F26E
:1007080020EA020000EBD3705EEA430E08BF20EA3D
:10071800D37070BD94F0000F0FD101F00046400077
:1007280041EB010111F4801F08BF013CF7D041EAF9
:10073800060195F0000F18BF704703F000465200FD
:1007480043EB030313F4801F08BF013DF7D043EACE
:100758000603704794EA0C0F0CEA135518BF95EA84
:100768000C0F0CD050EA410618BF52EA4306D1D10B
:1007780081EA030101F000414FF0000070BD50EA2A
:10078800410606BF1046194652EA430619D094EAB4
:100798000C0F02D150EA013613D195EA0C0F05D19E
:1007A80052EA03361CBF104619460AD181EA0301F2
:1007B80001F0004141F0FE4141F470014FF00000AA
:1007C80070BD41F0FE4141F4780170BD70B54FF045
:1007D800FF0C4CF4E06C1CEA11541DBF1CEA1355C5
:1007E80094EA0C0F95EA0C0F00F0A7F8A4EB0504A7
:1007F80081EA030E52EA03354FEA013100F088809E
:100808004FEA03334FF0805545EA131343EA126366
:100818004FEA022245EA111545EA10654FEA00261B
:100828000EF000419D4208BF964244F1FD0404F5D4
:10083800407402D25B084FEA3202B61A65EB030530
:100848005B084FEA32024FF480104FF4002CB6EBED
:10085800020E75EB030E22BFB61A754640EA0C006D
:100868005B084FEA3202B6EB020E75EB030E22BFAD
:10087800B61A754640EA5C005B084FEA3202B6EBEE
:10088800020E75EB030E22BFB61A754640EA9C00AD
:100898005B084FEA3202B6EB020E75EB030E22BF7D
:1008A800B61A754640EADC0055EA060E18D04FEA3B
:1008B800051545EA16754FEA06164FEAC30343EADB
:1008C80052734FEAC2025FEA1C1CC0D111F4801FA8
:1008D8000BD141EA00014FF000004FF0004CB6E7A1
:1008E80011F4801F04BF01430020B4F1FD0C88BF40
:1008F800BCF5E06F3FF6AFAEB5EB030C04BFB6EB4B
:10090800020C5FEA500C50F1000041EB045170BD3D
:100918000EF0004E4EEA113114EB5C04C2BFD4EB6A
:100928000C0541EA045170BD41F480114FF0000EEE
:10093800013C90E645EA060E8DE60CEA135594EA6A
:100948000C0F08BF95EA0C0F3FF43BAF94EA0C0F6D
:100958000AD150EA01347FF434AF95EA0C0F7FF4E2
:1009680025AF104619462CE795EA0C0F06D152EA36
:1009780003353FF4FDAE1046194622E750EA41061A
:1009880018BF52EA43067FF4C5AE50EA41047FF42B
:100998000DAF52EA43057FF4EBAE12E74FF0FF3C90
:1009A80006E000BF4FF0010C02E000BF4FF0010C61
:1009B8004DF804CD4FEA410C7FEA6C5C4FEA430CDA
:1009C80018BF7FEA6C5C1BD001B050EA410C0CBF29
:1009D80052EA430C91EA030F02BF90EA020F00208B
:1009E800704710F1000F91EA030F58BF994208BFF2
:1009F80090422CBFD8176FEAE37040F001007047AF
:100A08004FEA410C7FEA6C5C02D150EA013C07D105
:100A18004FEA430C7FEA6C5CD6D152EA033CD3D050
:100A28005DF8040B704700BF8446104662468C464A
:100A38001946634600E000BF01B5FFF7B7FF00287D
:100A480048BF10F1000F01BD4DF808EDFFF7F4FFA6
:100A58000CBF012000205DF808FB00BF4DF808ED31
:100A6800FFF7EAFF34BF012000205DF808FB00BF54
:100A78004DF808EDFFF7E0FF94BF012000205DF876
:100A880008FB00BF4DF808EDFFF7CEFF94BF01202B
:100A980000205DF808FB00BF4DF808EDFFF7C4FF24
:100AA80034BF012000205DF808FB00BF4FEA410277
:100AB800B2F1E04324BFB3F5001CDCF1FE5C0DD9B4
:100AC80001F0004C4FEAC0024CEA5070B2F1004FFE
:100AD80040EB830008BF20F00100704711F0804F01
:100AE80021D113F13872BCBF01F00040704741F4C6
:100AF80080114FEA5252C2F11802C2F1200C10FACA
:100B08000CF320FA02F018BF40F001004FEAC123AD
:100B18004FEAD32303FA0CFC40EA0C0023FA02F351
:100B28004FEA4303CCE77FEA625307D150EA013327
:100B38001EBF4FF0FE4040F44000704701F00040F7
:100B480040F0FE4040F40000704700BF80F00040D5
:100B580002E000BF81F0004142001FBF5FEA41038D
:100B680092EA030F7FEA226C7FEA236C6AD04FEA8D
:100B78001262D2EB1363C1BFD218414048404140D2
:100B8800B8BF5B42192B88BF704710F0004F40F484
:100B9800000020F07F4018BF404211F0004F41F4A0
:100BA800000121F07F4118BF494292EA030F3FD06C
:100BB800A2F1010241FA03FC10EB0C00C3F120037F
:100BC80001FA03F100F0004302D5494260EB40000E
:100BD800B0F5000F13D3B0F1807F06D340084FEA79
:100BE800310102F10102FE2A51D2B1F1004F40EB6E
:100BF800C25008BF20F0010040EA030070474900D6
:100C080040EB0000013A28BFB0F5000FEDD2B0FA72
:100C180080FCACF1080CB2EB0C0200FA0CF0AABF95
:100C280000EBC25052421843BCBFD0401843704733
:100C380092F0000F81F4000106BF80F40000013239
:100C4800013BB5E74FEA41037FEA226C18BF7FEA10
:100C5800236C21D092EA030F04D092F0000F08BF52
:100C68000846704790EA010F1CBF0020704712F039
:100C78007F4F04D1400028BF40F00040704712F178
:100C880000723CBF00F50000704700F0004343F0DD
:100C9800FE4040F4000070477FEA226216BF084613
:100CA8007FEA23630146420206BF5FEA412390EAD6
:100CB800010F40F4800070474FF0000304E000BFCC
:100CC80010F0004348BF40425FEA000C08BF70477D
:100CD80043F0964301464FF000001CE050EA010241
:100CE80008BF70474FF000030AE000BF50EA010256
:100CF80008BF704711F0004302D5404261EB410143
:100D08005FEA010C02BF84460146002043F0B64367
:100D180008BFA3F18053A3F50003BCFA8CF2083A8C
:100D2800A3EBC25310DB01FA02FC634400FA02FC95
:100D3800C2F12002BCF1004F20FA02F243EB02009C
:100D480008BF20F00100704702F1200201FA02FCFE
:100D5800C2F1200250EA4C0021FA02F243EB0200F1
:100D680008BF20EADC70704753B94AB9002908BFA8
:100D780000281CBF4FF0FF314FF0FF3000F0C6B91C
:100D8800ADF1080C6DE904CE00F044F8DDF804E09C
:100D9800DDE9022304B07047D0B5FFF795FB0C4B93
:100DA800002206460F46FFF7E7FB00F0B1F90446BC
:100DB800FFF768FB074B0022FFF7DEFB02460B46F6
:100DC80030463946FFF720FA00F0A2F92146D0BD97
:100DD8000000F03D0000F041D0B50C4B0022064663
:100DE8000F46FFF7C9FB00F093F90446FFF74AFBEB
:100DF800074B0022FFF7C0FB02460B463046394638
:100E0800FFF702FA00F084F92146D0BD0000F03D5A
:100E18000000F0412DE9F047089D8E4604468846BB
:100E2800002B4AD18A42174662D9B2FA82F64EB1ED
:100E3800C6F1200301FA06F820FA03F3B74043EAA3
:100E48000808B4404FEA174E1FFA87FCB8FBFEF1BA
:100E5800230C0EFB118843EA084301FB0CF29A426B
:100E680009D9FB1801F1FF3080F0EA809A4240F27C
:100E7800E78002393B449A1AA3B2B2FBFEF00EFB9C
:100E8800102243EA024300FB0CFC9C4509D9FB18DD
:100E980000F1FF3280F0D6809C4540F2D3803B447D
:100EA800023840EA0140A3EB0C0300211DB1F340D6
:100EB8000022C5E90032BDE8F0878B4205D90DB1A3
:100EC800C5E9000100210846F5E7B3FA83F10029D6
:100ED80046D1734502D3824200F20581841A6EEB33
:100EE800030201209046002DE5D0C5E90048E2E75D
:100EF800002A00F09080B2FA82F6002E40F0A4801A
:100F08008A1A030C4FEA174E80B2BCB20121B2FB19
:100F1800FEFC0EFB1C2243EA024304FB0CF29A423D
:100F280007D9FB180CF1FF3802D29A4200F2E08090
:100F3800C4469B1AB3FBFEF20EFB123340EA03438E
:100F480002FB04F49C4207D9FB1802F1FF3002D2DD
:100F58009C4200F2CA8002461B1B42EA0C40A5E7ED
:100F6800C1F120068B4022FA06F71F430EFA01F45E
:100F780020FA06F32EFA06FE4FEA1749234300FA31
:100F880001F81FFA87FCBEFBF9F01C0C09FB10EEF8
:100F980044EA0E4400FB0CFEA64502FA01F209D908
:100FA8003C1900F1FF3A80F09C80A64540F29980F8
:100FB80002383C44A4EB0E041FFA83FEB4FBF9F399
:100FC80009FB13444EEA044403FB0CFCA44508D96E
:100FD8003C1903F1FF3E80F08280A4457FD9023B93
:100FE8003C4443EA0040A4EB0C04A0FB02EC64453B
:100FF8007346E14662D35FD05DB1B8EB030264EBA0
:10100800090404FA06F622FA01F31E43CC40C5E9A6
:10101800006400214FE7B1FBF2FC010C41EA0E41EC
:1010280080B240EA01423B4638463C46B846BE4696
:101038002026B1FBF7F1A2EB080241EA0C4166E772
:10104800014618E710462CE7C6F120022EFA02F3F3
:10105800B740B14020FA02F24FEA174E0A43B3FBF9
:10106800FEF8BCB20EFB1833110C41EA034108FB31
:1010780004F9B04089454FEA104380B23ED9791847
:1010880008F1FF3C01D289451FD8A1EB0901B1FB4A
:10109800FEF909FB04F80EFB191192B242EA01426B
:1010A800424529D2BA1809F1FF31C4D24245C2D209
:1010B800A9F102013A44BEE7F0459DD2BEEB020316
:1010C8006CEB070C0138E14696E7A7EB09094944A0
:1010D800A8F1020CB1FBFEF909FB04F8DBE7734643
:1010E8007FE7504666E70846FDE63B44023A33E7A9
:1010F800ACF1020C3B441CE749469CE7A1EB090113
:10110800C446B1FBFEF909FB04F8C4E7704700BF09
:101118004A0011D212F5001211D20DD56FF478736E
:10112800B3EB62520ED44FEAC12343F0004343EAC3
:10113800505323FA02F070474FF00000704750EA0E
:10114800013002D14FF0FF3070474FF00000704778
:1011580030B589B000240394049405940694079448
:101168000094184B1A6B42F004021A631A6B02F0CF
:1011780004020092009A01941A6B42F080021A63EA
:101188001A6B02F080020192019A02941A6B42F0E3
:1011980002021A631B6B03F002030293029B0A4DBF
:1011A8002246FF21284600F037FFFF23039301233F
:1011B80004930594069403A9284600F03DFE09B05F
:1011C80030BD00BF003802400004024000000000AB
:1011D8002DE9F04F95B00D460892FFF763F90646E2
:1011E8000F46CDE90C6702460B4600205E49FFF723
:1011F800EDFACDE90E0132463B4600204FF0804122
:10120800FFF7E4FACDE910019FED557B8DED0A7BE0
:1012180000230993129313958DE032463B46DDE98E
:101228000001FEF7F1FFDDE90223FEF7EFFF0646B6
:101238000F4622462B4620462946FEF7E7FF524630
:101248005B46FFF799F9DDE90423FEF7DFFF8246E5
:101258008B460022454B40464946FEF7D7FF80465D
:10126800894634463D460898FFF71CF942464B46E6
:10127800FFF712FCD8B122462B4620462946FFF735
:101288007BF9CDE9000152465B4650465946FFF7C7
:1012980073F906460F4602460B46DDE90001FEF7E4
:1012A800B5FF0022324BFFF7E3FB0028B5D10998C0
:1012B8001299FFF72BF942464B46FEF7A7FFFFF7B7
:1012C8008BFD099012910022284BDDE90601FEF7FB
:1012D8009DFFCDE90601DDE90623DDE90C01FFF7F5
:1012E800DBFB00B3DDE90E23DDE90601FFF744F976
:1012F8000022204BFEF788FFCDE90201DDE910232B
:10130800DDE90A01FFF738F90022184BFEF77CFFE8
:10131800CDE904014FF000084FF00009C246CB4662
:1013280044464D469FE70022104BDDE90A01FEF7CF
:101338006DFFCDE90A011398FFF7B4F8DDE90A2338
:10134800FFF7AAFB20B19FED067B8DED067BC2E778
:101358000998129915B0BDE8F08F00BFAFF300806F
:10136800000000000000000000000C400000F03FFA
:10137800000010400000044038B52DED088B0AEE3F
:10138800100A0BEE901A08EE902AFFF78BF8044625
:101398000D4602460B4600203849FFF717FAFFF7BB
:1013A80085FB0BEE100A22462B4600204FF08041A9
:1013B800FFF70CFAFFF77AFB0AEE900ADFED309A96
:1013C800002001464DE076EEC66A77EEA77A27EE52
:1013D800877A37EE247AF7EE007A38EE278A76EEA7
:1013E800847AF8EEE86AF4EEC86AF1EE10FA0CDDD9
:1013F80067EEA76A27EE076A36EE865AF1EE005ABC
:10140800B4EEE55AF1EE10FADDD9FFF767FC07EE06
:10141800900A77EE887A17EE900AFFF7BDFCF7EE90
:10142800007A39EE279AF8EECA7AF4EEC97AF1EE24
:1014380010FA12DD29EE0B4AF0EE047A34EE674A10
:1014480069EEAA4AF7EE007A74EEE74A9FED0C8A35
:10145800B0EE487AF0EE487AC3E7F7EE007A79EE14
:10146800A79AF8EEEB7AF4EEE97AF1EE10FA02DDDB
:101478009FED039AD7E7BDEC088B38BD00000C4000
:101488000000000072B6FEE700B595B034220021D6
:1014980007A800F0B6FE0023029303930493059374
:1014A80006930093214A116C41F080511164126C2B
:1014B80002F080520092009A01931D4A136823F4A7
:1014C800404343F480431360136803F4404301939B
:1014D800019B012307934FF48033089302230D9354
:1014E8004FF480020E920F220F92902210921193C5
:1014F8001293139307A800F07DFA98B90F2302936B
:1015080002230393002304934FF4A05305934FF44D
:1015180080530693032102A800F028F920B915B0DA
:101528005DF804FBFFF7AEFFFFF7ACFF00380240A1
:101538000070004082B04FF4FA5303FB00F20C4BEA
:10154800A3FB0232520A0023009308E0019B0133F7
:101558000193019B9342F9D3009B01330093009BB5
:10156800B3F57A7F02D200230193F2E702B0704705
:10157800D34D62102DE9F04700F0E4FDFFF784FF3A
:10158800FFF7E6FD0024564B1C604EE0554D012345
:101598006B61554B53F82430544F3B60DFF874A10E
:1015A800CAF80030524E336000F0F2FD4FF00009E7
:1015B800DFF86481C8F80000C8F804906422DAF8FB
:1015C80000103068FFF704FE4A4EC6E9000100F03B
:1015D800DFFD494B1860C3F80490D8F80030D8F8FC
:1015E8000420C01A62EB4202444B18605A603C491E
:1015F8000B68D7F800C0424F47F823C0414F07EBAC
:10160800C30C47F83300CCF804203F4A02EBC3026E
:10161800D6E90067C2E9006701330B6003236B61F9
:101628004FF47A70FFF786FF0134042CAEDD0024F6
:101638002B4B1C604EE02B4D01236B612A4B53F85A
:1016480024302A4F3B60DFF8CCA0CAF80030284E7F
:10165800336000F09DFD4FF00009DFF8BC80C8F84A
:101668000000C8F804906422DAF800103068FFF728
:1016780083FE204EC6E9000100F08AFD1E4B18606B
:10168800C3F80490D8F80030D8F80420C01A62EBE8
:1016980042021A4B18605A6011490B68D7F800C00B
:1016A800174F47F823C0194F07EBC30C47F833000F
:1016B800CCF80420164A02EBC302D6E90067C2E957
:1016C800006701330B6003236B614FF47A70FFF7F7
:1016D80031FF0134042CAEDD024B00225A61FEE7D3
:1016E8003C000020000402400000002018010020F7
:1016F8001C010020100100204800002040000020AC
:10170800F8000020D000002080000020A800002061
:10171800580000202001002050000020FEE7FEE7CE
:10172800FEE7FEE7FEE770477047704708B500F030
:1017380023FD08BD82B0002100910B4B5A6C42F486
:1017480080425A645A6C02F480420092009A0191D5
:101758001A6C42F080521A641B6C03F08053019398
:10176800019B02B0704700BF00380240002800F01B
:101778009B8070B50D4604464F4B1B6803F00F0362
:101788008B4208D2CBB24C4A1370136803F00F0394
:101798008B4240F08B80236813F0020F17D013F0B0
:1017A800040F04D0454A936843F4E05393602368D8
:1017B80013F0080F04D0414A936843F460439360E0
:1017C8003E4A936823F0F003A1680B4393602368B3
:1017D80013F0010F32D06368012B21D09A1E012A21
:1017E80025D9364A126812F0020F61D033498A6847
:1017F80022F0030213438B6000F0CAFC06462F4B0D
:101808009B6803F00C036268B3EB820F16D000F0FC
:10181800BFFC801B41F288339842F0D9032042E094
:10182800264A126812F4003FE0D101203BE0234A27
:10183800126812F0007FD9D1012034E01E4B1B68DA
:1018480003F00F03AB4207D9EAB21B4B1A701B68AF
:1018580003F00F03AB422DD1236813F0040F06D019
:10186800164A936823F4E053E1680B4393602368B6
:1018780013F0080F07D0114A936823F460432169D5
:1018880043EAC103936000F021F80C4B9B68C3F353
:1018980003130B4AD35CD8400A4B18600A4B1868EC
:1018A80000F02AFC002070BD012070470120FAE7F3
:1018B8000120F8E70120F6E7003C0240003802402A
:1018C8007C2200081C0000201800002008B5464BA8
:1018D8009B6803F00C03082B05D00C2B43D0042B7A
:1018E8007FD1424819E0404B5A6802F03F025B68DA
:1018F80013F4800F12D03C4B5968C1F388113B4850
:101908000023A1FB0001FFF72FFA374B5B68C3F3F5
:10191800014301335B00B0FBF3F008BD324B58685C
:10192800C0F388104FEA401CBCEB000C6EEB0E0EA7
:101938004FEA8E1343EA9C634FEA8C11B1EB0C011A
:1019480063EB0E03DB0043EA5173C90011EB000C93
:1019580043F10003990200234FEA8C2041EA9C518D
:10196800FFF702FAD1E7204B5A6802F03F025B68A2
:1019780013F4800F10D01C4B5968C1F388111B4811
:101988000023A1FB0001FFF7EFF9174B5B68C3F3D6
:101998000273B0FBF3F0C0E7134B5868C0F388102C
:1019A8004FEA401CBCEB000C6EEB0E0E4FEA8E1398
:1019B80043EA9C634FEA8C11B1EB0C0163EB0E0315
:1019C800DB0043EA5173C90011EB000C43F100033B
:1019D800990200234FEA8C2041EA9C51FFF7C4F991
:1019E800D3E7034899E700BF0038024040787D01FB
:1019F8000024F400002800F0018270B582B004468B
:101A0800036813F0010F41D0994B9B6803F00C0356
:101A1800042B32D0964B9B6803F00C03082B27D07D
:101A2800934B9B6803F00C030C2B59D06368B3F5F8
:101A3800803F5BD0B3F5A02F5ED08D4B1A6822F49F
:101A480080321A601A6822F480221A606368002BB8
:101A58005CD000F09DFB0546854B1B6813F4003FE6
:101A680014D100F095FB401B6428F5D90320CCE184
:101A78007F4B5B6813F4800FD2D07D4B1B6813F447
:101A8800003F03D06368002B00F0BA81236813F08D
:101A9800020F60D0764B9B6813F00C0F4AD0744B42
:101AA8009B6803F00C03082B3FD0714B9B6803F035
:101AB8000C030C2B69D0E368002B75D06D4B012209
:101AC8001A6000F065FB0546694B1B6813F0020FAE
:101AD80061D100F05DFB401B0228F5D9032094E199
:101AE800634B5B6813F4800FA0D0C6E7604A1368A5
:101AF80043F480331360A9E75D4B1A6842F48022EF
:101B08001A601A6842F480321A609FE700F040FBBE
:101B18000546574B1B6813F4003FB7D000F038FB5D
:101B2800401B6428F5D903206FE1514B5B6813F41F
:101B3800800FBAD14E4B1B6813F0020F03D0E36835
:101B4800012B40F05F814A4A136823F0F8032169AA
:101B580043EAC1031360236813F0080F49D063698F
:101B6800002B33D0434B0122C3F8802E00F010FB2A
:101B780005463F4B5B6F13F0020F3AD100F008FBAC
:101B8800401B0228F5D903203FE1394B5B6813F469
:101B9800800F90D1CEE7364A136823F0F803216905
:101BA80043EAC1031360D6E7324B00221A6000F003
:101BB800EFFA05462E4B1B6813F0020FCBD000F04E
:101BC800E7FA401B0228F5D903201EE1294B002221
:101BD800C3F8802E00F0DCFA0546254B5B6F13F046
:101BE800020F06D000F0D4FA401B0228F5D90320D2
:101BF8000BE1236813F0040F76D01D4B1B6C13F018
:101C0800805F33D100230193194B1A6C42F0805244
:101C18001A641B6C03F080530193019B0125164B3A
:101C28001B6813F4807F29D0A368012B3AD0052BB9
:101C38003ED00F4B1A6F22F001021A671A6F22F07A
:101C480004021A67A368002B3CD000F0A1FA0646EC
:101C5800074B1B6F13F0020F45D100F099FA801B58
:101C680041F288339842F3D90320CEE00025D6E725
:101C78000038024000004742007000406B4A136879
:101C880043F48073136000F083FA0646674B1B68C1
:101C980013F4807FC8D100F07BFA801B0228F5D9A5
:101CA8000320B2E0624A136F43F001031367C9E7E8
:101CB8005F4B1A6F42F004021A671A6F42F0010272
:101CC8001A67BFE700F064FA0646594B1B6F13F01A
:101CD800020F08D000F05CFA801B41F2883398426A
:101CE800F3D9032091E0EDB9A369002B00F08C80B3
:101CF8004F4A926802F00C02082A54D0022B17D0DF
:101D08004C4B00221A6600F043FA0446484B1B6805
:101D180013F0007F45D000F03BFA001B0228F5D9EC
:101D2800032072E0424A136C23F080531364DBE70C
:101D3800404B00221A6600F02BFA05463C4B1B6804
:101D480013F0007F06D000F023FA401B0228F5D9D3
:101D580003205AE0E369226A1343626A43EA821362
:101D6800A26A5208013A43EA0243E26A43EA02637A
:101D7800226B43EA02732E4A53602E4B01221A66E5
:101D880000F006FA04462A4B1B6813F0007F06D1C0
:101D980000F0FEF9001B0228F5D9032035E00020E9
:101DA80033E0002031E0012B31D0214B5B6803F494
:101DB8008001E26991422CD103F03F02216A8A42F4
:101DC80029D1616A47F6C0721A40B2EB811F24D14B
:101DD80003F44031A26A5208013AB1EB024F1ED116
:101DE80003F07062E16AB2EB016F1AD103F0E043CD
:101DF800226BB3EB027F16D1002006E0012070476A
:101E0800012002E0012000E0002002B070BD0120A6
:101E1800FBE70120F9E70120F7E70120F5E70120BA
:101E2800F3E70120F1E70120EFE700BF0070004071
:101E3800003802400000474200230F2B00F2E380E5
:101E480070B582B065E085684FEA430E032404FA52
:101E58000EF425EA0405CC6804FA0EF42C438460D9
:101E6800446824EA02044A68C2F300129A402243F2
:101E780042605CE0DC08083450F8242003F00705D1
:101E8800AD004FF00F0E0EFA05FE22EA0E0E0A699B
:101E9800AA4042EA0E0240F824205CE0062200E054
:101EA800002202FA0EF22A430234574D45F8242044
:101EB800564A94686FEA0C0224EA0C054E6816F438
:101EC800801F01D04CEA0405504CA560E46802EA82
:101ED80004054E6816F4001F01D04CEA04054B4C6B
:101EE800E560646802EA04054E6816F4003F01D014
:101EF8004CEA0405454C6560246822404D6815F499
:101F0800803F01D04CEA0402404C226001330F2B81
:101F180077D801229A400C6804EA020C32EA0404D9
:101F2800F4D14C6804F00304013C012C8BD94A68B5
:101F380002F00302032A09D0C4685D000322AA4004
:101F480024EA02048A68AA402243C2604A6802F06E
:101F58000302022A8ED004684FEA430E032202FAD3
:101F68000EF224EA02044A6802F0030202FA0EF2B0
:101F7800224302604A6812F4403FC7D0002201920F
:101F8800234A546C44F480445464526C02F48042F2
:101F98000192019A9C08A51C1B4A52F8255003F08F
:101FA800030E4FEA8E0E0F2202FA0EF225EA020500
:101FB800184A90423FF474AF02F58062904216D0FE
:101FC80002F58062904214D002F58062904212D0ED
:101FD80002F58062904210D002F5806290420ED0E5
:101FE80002F5806290423FF459AF072259E7012277
:101FF80057E7022255E7032253E7042251E7052257
:102008004FE702B070BD704700380140003C014006
:1020180000380240000002400AB18161704709049B
:1020280081617047002808DB0901C9B200F16040EE
:1020380000F5614080F80013704700F00F000901B7
:10204800C9B2014B1954704714ED00E000B500F017
:102058000700C0F1070CBCF1040F28BF4FF0040CB7
:10206800031D062B0FD9C31E4FF0FF3E0EFA0CF0CE
:1020780021EA000199400EFA03FE22EA0E0241EA23
:1020880002005DF804FB0023EEE70000074AD3686E
:1020980023F4E0631B041B0C000200F4E06003431C
:1020A80043F0BF6343F40033D360704700ED00E0B2
:1020B80010B50446054BD868C0F30220FFF7C6FFE9
:1020C80001462046FFF7AEFF10BD00BF00ED00E05F
:1020D8000138B0F1807F0BD24FF0E0235861054AF8
:1020E800F02182F823100020986107221A617047B6
:1020F8000120704700ED00E010B504460E4B1A7839
:102108004FF47A73B3FBF2F30C4A1068B0FBF3F0A8
:10211800FFF7DEFF68B90F2C01D901200AE0002281
:1021280021464FF0FF30FFF7C3FF054B1C6000202E
:1021380000E0012010BD00BF140000201C0000209A
:102148001800002008B50B4B1A6842F400721A6098
:102158001A6842F480621A601A6842F480721A603F
:102168000320FFF793FF0F20FFF7C6FFFFF7E2FA00
:10217800002008BD003C0240034A1168034B1B784D
:102188000B441360704700BF240100201400002096
:10219800014B1868704700BF24010020034AD2F899
:1021A800883043F47003C2F88830704700ED00E0CF
:1021B800DFF834D0FFF7F2FF0C480D490D4A002331
:1021C80002E0D458C4500433C4188C42F9D30A4AE4
:1021D8000A4C002301E013600432A242FBD300F052
:1021E80019F8FFF7C7F97047000002200000002027
:1021F800200000209C220008200000202801002048
:10220800FEE702440346934200D1704703F8011BDE
:10221800F9E7000070B50D4D0D4C641BA4100026A5
:10222800A64209D10B4D0C4C00F018F8641BA41001
:102238000026A64205D170BD55F8043B98470136E3
:10224800EEE755F8043B98470136F2E79422000878
:10225800942200089422000898220008F8B500BFCC
:10226800F8BC08BC9E467047F8B500BFF8BC08BC6F
:042278009E467047C7
:10227C00000000000000000001020304060708092A
:08228C0090EBFF7F0100000050
:04229400ED01000850
:04229800C901000870
:10229C0080000000A0000000C0000000E000000072
:1022AC000001000001000000100000000024F400F8
:04000005080021B915
:00000001FF
